{
  "contractName": "DeathCertificate",
  "abi": [
    {
      "inputs": [
        {
          "internalType": "address payable",
          "name": "_addr",
          "type": "address"
        }
      ],
      "stateMutability": "nonpayable",
      "type": "constructor"
    },
    {
      "anonymous": false,
      "inputs": [
        {
          "components": [
            {
              "components": [
                {
                  "internalType": "string",
                  "name": "NIN",
                  "type": "string"
                }
              ],
              "internalType": "struct DeathCertificate.Person",
              "name": "announcer",
              "type": "tuple"
            },
            {
              "components": [
                {
                  "internalType": "string",
                  "name": "NIN",
                  "type": "string"
                }
              ],
              "internalType": "struct DeathCertificate.Person",
              "name": "dead",
              "type": "tuple"
            },
            {
              "components": [
                {
                  "internalType": "string",
                  "name": "NIN",
                  "type": "string"
                }
              ],
              "internalType": "struct DeathCertificate.Person",
              "name": "doctor",
              "type": "tuple"
            }
          ],
          "indexed": false,
          "internalType": "struct DeathCertificate.Document",
          "name": "document",
          "type": "tuple"
        }
      ],
      "name": "Death",
      "type": "event"
    },
    {
      "inputs": [
        {
          "internalType": "address",
          "name": "institution",
          "type": "address"
        }
      ],
      "name": "addCertifiedInstitution",
      "outputs": [],
      "stateMutability": "nonpayable",
      "type": "function"
    },
    {
      "inputs": [
        {
          "internalType": "string",
          "name": "announcerNIN",
          "type": "string"
        },
        {
          "internalType": "string",
          "name": "deadNIN",
          "type": "string"
        },
        {
          "internalType": "string",
          "name": "doctorNIN",
          "type": "string"
        }
      ],
      "name": "announceDeath",
      "outputs": [],
      "stateMutability": "nonpayable",
      "type": "function"
    }
  ],
  "bytecode": "0x608060405234801561001057600080fd5b50604051610bc0380380610bc08339818101604052810190610032919061015b565b336000806101000a81548173ffffffffffffffffffffffffffffffffffffffff021916908373ffffffffffffffffffffffffffffffffffffffff16021790555080600160006101000a81548173ffffffffffffffffffffffffffffffffffffffff021916908373ffffffffffffffffffffffffffffffffffffffff160217905550600160009054906101000a900473ffffffffffffffffffffffffffffffffffffffff1673ffffffffffffffffffffffffffffffffffffffff1663ff1d9893306040518263ffffffff1660e01b815260040161010e9190610193565b600060405180830381600087803b15801561012857600080fd5b505af115801561013c573d6000803e3d6000fd5b5050505050610209565b600081519050610155816101f2565b92915050565b60006020828403121561016d57600080fd5b600061017b84828501610146565b91505092915050565b61018d816101ae565b82525050565b60006020820190506101a86000830184610184565b92915050565b60006101b9826101d2565b9050919050565b60006101cb826101d2565b9050919050565b600073ffffffffffffffffffffffffffffffffffffffff82169050919050565b6101fb816101c0565b811461020657600080fd5b50565b6109a8806102186000396000f3fe608060405234801561001057600080fd5b50600436106100365760003560e01c80631205b95b1461003b57806374fd05a614610057575b600080fd5b610055600480360381019061005091906104ab565b610073565b005b610071600480360381019061006c9190610482565b61031c565b005b600260003373ffffffffffffffffffffffffffffffffffffffff1673ffffffffffffffffffffffffffffffffffffffff16815260200190815260200160002060009054906101000a900460ff166100ff576040517f08c379a00000000000000000000000000000000000000000000000000000000081526004016100f6906107ac565b60405180910390fd5b60006040518060200160405280858152509050600060405180602001604052808581525090506000604051806020016040528085815250905060006040518060600160405280858152602001848152602001838152509050600381600001516000015160405161016f9190610753565b908152602001604051809103902060009054906101000a900460ff161580156101c9575060038160200151600001516040516101ab9190610753565b908152602001604051809103902060009054906101000a900460ff16155b610208576040517f08c379a00000000000000000000000000000000000000000000000000000000081526004016101ff9061078c565b60405180910390fd5b600160038260200151600001516040516102229190610753565b908152602001604051809103902060006101000a81548160ff0219169083151502179055507fcffa00506e7b4e6fffe7a2167406482d8829f3d9c6e4b3f3292a42ad3cd2cb208160405161027691906107ec565b60405180910390a1600160009054906101000a900473ffffffffffffffffffffffffffffffffffffffff1673ffffffffffffffffffffffffffffffffffffffff16637a7cd0818260200151600001516040518263ffffffff1660e01b81526004016102e1919061076a565b600060405180830381600087803b1580156102fb57600080fd5b505af115801561030f573d6000803e3d6000fd5b5050505050505050505050565b60008054906101000a900473ffffffffffffffffffffffffffffffffffffffff1673ffffffffffffffffffffffffffffffffffffffff163373ffffffffffffffffffffffffffffffffffffffff16146103aa576040517f08c379a00000000000000000000000000000000000000000000000000000000081526004016103a1906107cc565b60405180910390fd5b6001600260008373ffffffffffffffffffffffffffffffffffffffff1673ffffffffffffffffffffffffffffffffffffffff16815260200190815260200160002060006101000a81548160ff02191690831515021790555050565b60006104186104138461083f565b61080e565b90508281526020810184848401111561043057600080fd5b61043b8482856108d9565b509392505050565b6000813590506104528161095b565b92915050565b600082601f83011261046957600080fd5b8135610479848260208601610405565b91505092915050565b60006020828403121561049457600080fd5b60006104a284828501610443565b91505092915050565b6000806000606084860312156104c057600080fd5b600084013567ffffffffffffffff8111156104da57600080fd5b6104e686828701610458565b935050602084013567ffffffffffffffff81111561050357600080fd5b61050f86828701610458565b925050604084013567ffffffffffffffff81111561052c57600080fd5b61053886828701610458565b9150509250925092565b600061054d8261086f565b610557818561087a565b93506105678185602086016108e8565b6105708161094a565b840191505092915050565b60006105868261086f565b610590818561088b565b93506105a08185602086016108e8565b6105a98161094a565b840191505092915050565b60006105bf8261086f565b6105c9818561089c565b93506105d98185602086016108e8565b80840191505092915050565b60006105f260108361088b565b91507f496e76616c696420646f63756d656e74000000000000000000000000000000006000830152602082019050919050565b600061063260238361088b565b91507f43616c6c6572206973206e6f742063657274696669656420696e73746974757460008301527f696f6e00000000000000000000000000000000000000000000000000000000006020830152604082019050919050565b600061069860138361088b565b91507f43616c6c6572206973206e6f742061646d696e000000000000000000000000006000830152602082019050919050565b600060608301600083015184820360008601526106e88282610729565b915050602083015184820360208601526107028282610729565b9150506040830151848203604086015261071c8282610729565b9150508091505092915050565b600060208301600083015184820360008601526107468282610542565b9150508091505092915050565b600061075f82846105b4565b915081905092915050565b60006020820190508181036000830152610784818461057b565b905092915050565b600060208201905081810360008301526107a5816105e5565b9050919050565b600060208201905081810360008301526107c581610625565b9050919050565b600060208201905081810360008301526107e58161068b565b9050919050565b6000602082019050818103600083015261080681846106cb565b905092915050565b6000604051905081810181811067ffffffffffffffff821117156108355761083461091b565b5b8060405250919050565b600067ffffffffffffffff82111561085a5761085961091b565b5b601f19601f8301169050602081019050919050565b600081519050919050565b600082825260208201905092915050565b600082825260208201905092915050565b600081905092915050565b60006108b2826108b9565b9050919050565b600073ffffffffffffffffffffffffffffffffffffffff82169050919050565b82818337600083830152505050565b60005b838110156109065780820151818401526020810190506108eb565b83811115610915576000848401525b50505050565b7f4e487b7100000000000000000000000000000000000000000000000000000000600052604160045260246000fd5b6000601f19601f8301169050919050565b610964816108a7565b811461096f57600080fd5b5056fea2646970667358221220091dc25661a2c42b036b8597effd110e858acd610160815c89e43092fcbb817b64736f6c63430008000033",
  "immutableReferences": {},
  "source": "// SPDX-License-Identifier: GPL-3.0\n\npragma solidity >=0.8.0 <0.9.0;\n\nimport \"./EtherWill.sol\";\n\ncontract DeathCertificate {\n    struct Person {\n        string NIN; // EGN in Bulgaria\n        // more fields such as name, lastname, email can be added in the future\n    }\n\n    struct Document {\n        Person announcer;\n        Person dead;\n        Person doctor;\n    }\n\n    address private admin;\n\n    EtherWill private etherWillAddr;\n    \n    mapping(address => bool) private certifiedInstitustions;\n\n    mapping(string => bool) private deadPeople;\n\n    event Death(Document document);\n\n    constructor(address payable _addr) {\n        admin = msg.sender;\n        etherWillAddr = EtherWill(_addr);\n        etherWillAddr.setDeathSertificateAddr(address(this));\n    }\n\n    modifier isAdmin() {\n        require(msg.sender == admin, \"Caller is not admin\");\n        _;\n    }\n\n    modifier isCertifiedInstitution() {\n        require(certifiedInstitustions[msg.sender], \"Caller is not certified institution\");\n        _;\n    }\n\n    function addCertifiedInstitution(address institution) public isAdmin {\n        certifiedInstitustions[institution] = true;\n    }\n\n    // How can we send data from web3.js, so we can use Document as a parameter type here\n    function announceDeath(\n        string memory announcerNIN,\n        string memory deadNIN,\n        string memory doctorNIN\n    ) public isCertifiedInstitution {\n        Person memory announcer = Person({NIN: announcerNIN});\n        Person memory dead = Person({NIN: deadNIN });\n        Person memory doctor = Person({NIN: doctorNIN});\n    \n        Document memory document = Document({ announcer: announcer, dead: dead, doctor: doctor });\n        require(!deadPeople[document.announcer.NIN] && !deadPeople[document.dead.NIN], \"Invalid document\");\n        deadPeople[document.dead.NIN] = true;\n\n        emit Death(document);\n        // call Wills smart contract to execute the wills of the dead person\n        etherWillAddr.executeWills(document.dead.NIN);\n    }\n}\n",
  "sourcePath": "/home/astea/fmi/blockhain/will-chain/contracts/DeathCertificate.sol",
  "compiler": {
    "name": "solc",
    "version": "0.8.0+commit.c7dfd78e.Emscripten.clang"
  },
  "schemaVersion": "3.4.7",
  "updatedAt": "2022-06-12T17:14:45.356Z",
  "networkType": "ethereum",
  "devdoc": {
    "kind": "dev",
    "methods": {},
    "version": 1
  },
  "userdoc": {
    "kind": "user",
    "methods": {},
    "version": 1
  }
}