{
  "contractName": "DeathCertificate",
  "abi": [
    {
      "inputs": [
        {
          "internalType": "address payable",
          "name": "_addr",
          "type": "address"
        }
      ],
      "stateMutability": "nonpayable",
      "type": "constructor"
    },
    {
      "anonymous": false,
      "inputs": [
        {
          "components": [
            {
              "components": [
                {
                  "internalType": "string",
                  "name": "NIN",
                  "type": "string"
                }
              ],
              "internalType": "struct DeathCertificate.Person",
              "name": "announcer",
              "type": "tuple"
            },
            {
              "components": [
                {
                  "internalType": "string",
                  "name": "NIN",
                  "type": "string"
                }
              ],
              "internalType": "struct DeathCertificate.Person",
              "name": "dead",
              "type": "tuple"
            },
            {
              "components": [
                {
                  "internalType": "string",
                  "name": "NIN",
                  "type": "string"
                }
              ],
              "internalType": "struct DeathCertificate.Person",
              "name": "doctor",
              "type": "tuple"
            }
          ],
          "indexed": false,
          "internalType": "struct DeathCertificate.Document",
          "name": "document",
          "type": "tuple"
        }
      ],
      "name": "Death",
      "type": "event"
    },
    {
      "inputs": [
        {
          "internalType": "address",
          "name": "institution",
          "type": "address"
        }
      ],
      "name": "addCertifiedInstitution",
      "outputs": [],
      "stateMutability": "nonpayable",
      "type": "function"
    },
    {
      "inputs": [
        {
          "internalType": "string",
          "name": "announcerNIN",
          "type": "string"
        },
        {
          "internalType": "string",
          "name": "deadNIN",
          "type": "string"
        },
        {
          "internalType": "string",
          "name": "doctorNIN",
          "type": "string"
        }
      ],
      "name": "announceDeath",
      "outputs": [],
      "stateMutability": "nonpayable",
      "type": "function"
    },
    {
      "inputs": [
        {
          "components": [
            {
              "components": [
                {
                  "internalType": "string",
                  "name": "NIN",
                  "type": "string"
                }
              ],
              "internalType": "struct DeathCertificate.Person",
              "name": "announcer",
              "type": "tuple"
            },
            {
              "components": [
                {
                  "internalType": "string",
                  "name": "NIN",
                  "type": "string"
                }
              ],
              "internalType": "struct DeathCertificate.Person",
              "name": "dead",
              "type": "tuple"
            },
            {
              "components": [
                {
                  "internalType": "string",
                  "name": "NIN",
                  "type": "string"
                }
              ],
              "internalType": "struct DeathCertificate.Person",
              "name": "doctor",
              "type": "tuple"
            }
          ],
          "internalType": "struct DeathCertificate.Document",
          "name": "doc",
          "type": "tuple"
        }
      ],
      "name": "announceDeath1",
      "outputs": [],
      "stateMutability": "nonpayable",
      "type": "function"
    }
  ],
  "bytecode": "0x60806040523480156200001157600080fd5b5060405162000f8638038062000f86833981810160405281019062000037919062000167565b336000806101000a81548173ffffffffffffffffffffffffffffffffffffffff021916908373ffffffffffffffffffffffffffffffffffffffff16021790555080600160006101000a81548173ffffffffffffffffffffffffffffffffffffffff021916908373ffffffffffffffffffffffffffffffffffffffff160217905550600160009054906101000a900473ffffffffffffffffffffffffffffffffffffffff1673ffffffffffffffffffffffffffffffffffffffff1663ff1d9893306040518263ffffffff1660e01b8152600401620001159190620001a4565b600060405180830381600087803b1580156200013057600080fd5b505af115801562000145573d6000803e3d6000fd5b505050505062000223565b600081519050620001618162000209565b92915050565b6000602082840312156200017a57600080fd5b60006200018a8482850162000150565b91505092915050565b6200019e81620001c1565b82525050565b6000602082019050620001bb600083018462000193565b92915050565b6000620001ce82620001e9565b9050919050565b6000620001e282620001e9565b9050919050565b600073ffffffffffffffffffffffffffffffffffffffff82169050919050565b6200021481620001d5565b81146200022057600080fd5b50565b610d5380620002336000396000f3fe608060405234801561001057600080fd5b50600436106100415760003560e01c80631205b95b14610046578063560d6feb1461006257806374fd05a61461007e575b600080fd5b610060600480360381019061005b9190610815565b61009a565b005b61007c600480360381019061007791906108ac565b610343565b005b610098600480360381019061009391906107ec565b61058e565b005b600260003373ffffffffffffffffffffffffffffffffffffffff1673ffffffffffffffffffffffffffffffffffffffff16815260200190815260200160002060009054906101000a900460ff16610126576040517f08c379a000000000000000000000000000000000000000000000000000000000815260040161011d90610b57565b60405180910390fd5b6000604051806020016040528085815250905060006040518060200160405280858152509050600060405180602001604052808581525090506000604051806060016040528085815260200184815260200183815250905060038160000151600001516040516101969190610afe565b908152602001604051809103902060009054906101000a900460ff161580156101f0575060038160200151600001516040516101d29190610afe565b908152602001604051809103902060009054906101000a900460ff16155b61022f576040517f08c379a000000000000000000000000000000000000000000000000000000000815260040161022690610b37565b60405180910390fd5b600160038260200151600001516040516102499190610afe565b908152602001604051809103902060006101000a81548160ff0219169083151502179055507fcffa00506e7b4e6fffe7a2167406482d8829f3d9c6e4b3f3292a42ad3cd2cb208160405161029d9190610b97565b60405180910390a1600160009054906101000a900473ffffffffffffffffffffffffffffffffffffffff1673ffffffffffffffffffffffffffffffffffffffff16637a7cd0818260200151600001516040518263ffffffff1660e01b81526004016103089190610b15565b600060405180830381600087803b15801561032257600080fd5b505af1158015610336573d6000803e3d6000fd5b5050505050505050505050565b600260003373ffffffffffffffffffffffffffffffffffffffff1673ffffffffffffffffffffffffffffffffffffffff16815260200190815260200160002060009054906101000a900460ff166103cf576040517f08c379a00000000000000000000000000000000000000000000000000000000081526004016103c690610b57565b60405180910390fd5b60038160000151600001516040516103e79190610afe565b908152602001604051809103902060009054906101000a900460ff16158015610441575060038160200151600001516040516104239190610afe565b908152602001604051809103902060009054906101000a900460ff16155b610480576040517f08c379a000000000000000000000000000000000000000000000000000000000815260040161047790610b37565b60405180910390fd5b6001600382602001516000015160405161049a9190610afe565b908152602001604051809103902060006101000a81548160ff0219169083151502179055507fcffa00506e7b4e6fffe7a2167406482d8829f3d9c6e4b3f3292a42ad3cd2cb20816040516104ee9190610b97565b60405180910390a1600160009054906101000a900473ffffffffffffffffffffffffffffffffffffffff1673ffffffffffffffffffffffffffffffffffffffff16637a7cd0818260200151600001516040518263ffffffff1660e01b81526004016105599190610b15565b600060405180830381600087803b15801561057357600080fd5b505af1158015610587573d6000803e3d6000fd5b5050505050565b60008054906101000a900473ffffffffffffffffffffffffffffffffffffffff1673ffffffffffffffffffffffffffffffffffffffff163373ffffffffffffffffffffffffffffffffffffffff161461061c576040517f08c379a000000000000000000000000000000000000000000000000000000000815260040161061390610b77565b60405180910390fd5b6001600260008373ffffffffffffffffffffffffffffffffffffffff1673ffffffffffffffffffffffffffffffffffffffff16815260200190815260200160002060006101000a81548160ff02191690831515021790555050565b600061068a61068584610bea565b610bb9565b9050828152602081018484840111156106a257600080fd5b6106ad848285610c84565b509392505050565b6000813590506106c481610d06565b92915050565b600082601f8301126106db57600080fd5b81356106eb848260208601610677565b91505092915050565b60006060828403121561070657600080fd5b6107106060610bb9565b9050600082013567ffffffffffffffff81111561072c57600080fd5b6107388482850161079c565b600083015250602082013567ffffffffffffffff81111561075857600080fd5b6107648482850161079c565b602083015250604082013567ffffffffffffffff81111561078457600080fd5b6107908482850161079c565b60408301525092915050565b6000602082840312156107ae57600080fd5b6107b86020610bb9565b9050600082013567ffffffffffffffff8111156107d457600080fd5b6107e0848285016106ca565b60008301525092915050565b6000602082840312156107fe57600080fd5b600061080c848285016106b5565b91505092915050565b60008060006060848603121561082a57600080fd5b600084013567ffffffffffffffff81111561084457600080fd5b610850868287016106ca565b935050602084013567ffffffffffffffff81111561086d57600080fd5b610879868287016106ca565b925050604084013567ffffffffffffffff81111561089657600080fd5b6108a2868287016106ca565b9150509250925092565b6000602082840312156108be57600080fd5b600082013567ffffffffffffffff8111156108d857600080fd5b6108e4848285016106f4565b91505092915050565b60006108f882610c1a565b6109028185610c25565b9350610912818560208601610c93565b61091b81610cf5565b840191505092915050565b600061093182610c1a565b61093b8185610c36565b935061094b818560208601610c93565b61095481610cf5565b840191505092915050565b600061096a82610c1a565b6109748185610c47565b9350610984818560208601610c93565b80840191505092915050565b600061099d601083610c36565b91507f496e76616c696420646f63756d656e74000000000000000000000000000000006000830152602082019050919050565b60006109dd602383610c36565b91507f43616c6c6572206973206e6f742063657274696669656420696e73746974757460008301527f696f6e00000000000000000000000000000000000000000000000000000000006020830152604082019050919050565b6000610a43601383610c36565b91507f43616c6c6572206973206e6f742061646d696e000000000000000000000000006000830152602082019050919050565b60006060830160008301518482036000860152610a938282610ad4565b91505060208301518482036020860152610aad8282610ad4565b91505060408301518482036040860152610ac78282610ad4565b9150508091505092915050565b60006020830160008301518482036000860152610af182826108ed565b9150508091505092915050565b6000610b0a828461095f565b915081905092915050565b60006020820190508181036000830152610b2f8184610926565b905092915050565b60006020820190508181036000830152610b5081610990565b9050919050565b60006020820190508181036000830152610b70816109d0565b9050919050565b60006020820190508181036000830152610b9081610a36565b9050919050565b60006020820190508181036000830152610bb18184610a76565b905092915050565b6000604051905081810181811067ffffffffffffffff82111715610be057610bdf610cc6565b5b8060405250919050565b600067ffffffffffffffff821115610c0557610c04610cc6565b5b601f19601f8301169050602081019050919050565b600081519050919050565b600082825260208201905092915050565b600082825260208201905092915050565b600081905092915050565b6000610c5d82610c64565b9050919050565b600073ffffffffffffffffffffffffffffffffffffffff82169050919050565b82818337600083830152505050565b60005b83811015610cb1578082015181840152602081019050610c96565b83811115610cc0576000848401525b50505050565b7f4e487b7100000000000000000000000000000000000000000000000000000000600052604160045260246000fd5b6000601f19601f8301169050919050565b610d0f81610c52565b8114610d1a57600080fd5b5056fea2646970667358221220160a5b6e7c9fade062404b10d57f7a7233cb679995b266ffbfe84534ceea0cb164736f6c63430008000033",
  "immutableReferences": {},
  "source": "// SPDX-License-Identifier: GPL-3.0\r\n\r\npragma solidity >=0.8.0 <0.9.0;\r\n\r\nimport \"./EtherWill.sol\";\r\n\r\ncontract DeathCertificate {\r\n    struct Person {\r\n        string NIN; // EGN in Bulgaria\r\n        // more fields such as name, lastname, email can be added in the future\r\n    }\r\n\r\n    struct Document {\r\n        Person announcer;\r\n        Person dead;\r\n        Person doctor;\r\n    }\r\n\r\n    address private admin;\r\n\r\n    EtherWill private etherWillAddr;\r\n    \r\n    mapping(address => bool) private certifiedInstitustions;\r\n\r\n    mapping(string => bool) private deadPeople;\r\n\r\n    event Death(Document document);\r\n\r\n    constructor(address payable _addr) {\r\n        admin = msg.sender;\r\n        etherWillAddr = EtherWill(_addr);\r\n        etherWillAddr.setDeathSertificateAddr(address(this));\r\n    }\r\n\r\n    modifier isAdmin() {\r\n        require(msg.sender == admin, \"Caller is not admin\");\r\n        _;\r\n    }\r\n\r\n    modifier isCertifiedInstitution() {\r\n        require(certifiedInstitustions[msg.sender], \"Caller is not certified institution\");\r\n        _;\r\n    }\r\n\r\n    function addCertifiedInstitution(address institution) public isAdmin {\r\n        certifiedInstitustions[institution] = true;\r\n    }\r\n\r\n    // How can we send data from web3.js, so we can use Document as a parameter type here\r\n    function announceDeath(\r\n        string memory announcerNIN,\r\n        string memory deadNIN,\r\n        string memory doctorNIN\r\n    ) public isCertifiedInstitution {\r\n        Person memory announcer = Person({NIN: announcerNIN});\r\n        Person memory dead = Person({NIN: deadNIN });\r\n        Person memory doctor = Person({NIN: doctorNIN});\r\n    \r\n        Document memory document = Document({ announcer: announcer, dead: dead, doctor: doctor });\r\n        require(!deadPeople[document.announcer.NIN] && !deadPeople[document.dead.NIN], \"Invalid document\");\r\n        deadPeople[document.dead.NIN] = true;\r\n\r\n        emit Death(document);\r\n        // call Wills smart contract to execute the wills of the dead person\r\n        etherWillAddr.executeWills(document.dead.NIN);\r\n    }\r\n\r\n     function announceDeath1( Document memory doc ) public isCertifiedInstitution {\r\n        require(!deadPeople[doc.announcer.NIN] && !deadPeople[doc.dead.NIN], \"Invalid document\");\r\n        deadPeople[doc.dead.NIN] = true;\r\n\r\n        emit Death(doc);\r\n        // call Wills smart contract to execute the wills of the dead person\r\n        etherWillAddr.executeWills(doc.dead.NIN);\r\n    }\r\n}\r\n",
  "sourcePath": "F:\\jorko\\FMI\\will-chain\\contracts\\DeathCertificate.sol",
  "compiler": {
    "name": "solc",
    "version": "0.8.0+commit.c7dfd78e.Emscripten.clang"
  },
  "schemaVersion": "3.4.7",
  "updatedAt": "2022-06-15T16:54:00.840Z",
  "networkType": "ethereum",
  "devdoc": {
    "kind": "dev",
    "methods": {},
    "version": 1
  },
  "userdoc": {
    "kind": "user",
    "methods": {},
    "version": 1
  }
}