{
  "contractName": "DeathCertificate",
  "abi": [
    {
      "inputs": [
        {
          "internalType": "address payable",
          "name": "_addr",
          "type": "address"
        }
      ],
      "stateMutability": "nonpayable",
      "type": "constructor"
    },
    {
      "anonymous": false,
      "inputs": [
        {
          "components": [
            {
              "components": [
                {
                  "internalType": "string",
                  "name": "NIN",
                  "type": "string"
                }
              ],
              "internalType": "struct DeathCertificate.Person",
              "name": "announcer",
              "type": "tuple"
            },
            {
              "components": [
                {
                  "internalType": "string",
                  "name": "NIN",
                  "type": "string"
                }
              ],
              "internalType": "struct DeathCertificate.Person",
              "name": "dead",
              "type": "tuple"
            },
            {
              "components": [
                {
                  "internalType": "string",
                  "name": "NIN",
                  "type": "string"
                }
              ],
              "internalType": "struct DeathCertificate.Person",
              "name": "doctor",
              "type": "tuple"
            }
          ],
          "indexed": false,
          "internalType": "struct DeathCertificate.Document",
          "name": "document",
          "type": "tuple"
        }
      ],
      "name": "Death",
      "type": "event"
    },
    {
      "inputs": [
        {
          "internalType": "address",
          "name": "institution",
          "type": "address"
        }
      ],
      "name": "addCertifiedInstitution",
      "outputs": [],
      "stateMutability": "nonpayable",
      "type": "function"
    },
    {
      "inputs": [
        {
          "components": [
            {
              "components": [
                {
                  "internalType": "string",
                  "name": "NIN",
                  "type": "string"
                }
              ],
              "internalType": "struct DeathCertificate.Person",
              "name": "announcer",
              "type": "tuple"
            },
            {
              "components": [
                {
                  "internalType": "string",
                  "name": "NIN",
                  "type": "string"
                }
              ],
              "internalType": "struct DeathCertificate.Person",
              "name": "dead",
              "type": "tuple"
            },
            {
              "components": [
                {
                  "internalType": "string",
                  "name": "NIN",
                  "type": "string"
                }
              ],
              "internalType": "struct DeathCertificate.Person",
              "name": "doctor",
              "type": "tuple"
            }
          ],
          "internalType": "struct DeathCertificate.Document",
          "name": "document",
          "type": "tuple"
        }
      ],
      "name": "announceDeath",
      "outputs": [],
      "stateMutability": "nonpayable",
      "type": "function"
    }
  ],
  "bytecode": "0x608060405234801561001057600080fd5b50604051610b3b380380610b3b833981810160405281019061003291906100ce565b336000806101000a81548173ffffffffffffffffffffffffffffffffffffffff021916908373ffffffffffffffffffffffffffffffffffffffff16021790555080600160006101000a81548173ffffffffffffffffffffffffffffffffffffffff021916908373ffffffffffffffffffffffffffffffffffffffff16021790555050610140565b6000815190506100c881610129565b92915050565b6000602082840312156100e057600080fd5b60006100ee848285016100b9565b91505092915050565b600061010282610109565b9050919050565b600073ffffffffffffffffffffffffffffffffffffffff82169050919050565b610132816100f7565b811461013d57600080fd5b50565b6109ec8061014f6000396000f3fe608060405234801561001057600080fd5b50600436106100365760003560e01c806374fd05a61461003b578063b65388d014610057575b600080fd5b6100556004803603810190610050919061051c565b610073565b005b610071600480360381019061006c9190610545565b61015c565b005b60008054906101000a900473ffffffffffffffffffffffffffffffffffffffff1673ffffffffffffffffffffffffffffffffffffffff163373ffffffffffffffffffffffffffffffffffffffff1614610101576040517f08c379a00000000000000000000000000000000000000000000000000000000081526004016100f890610810565b60405180910390fd5b6001600260008373ffffffffffffffffffffffffffffffffffffffff1673ffffffffffffffffffffffffffffffffffffffff16815260200190815260200160002060006101000a81548160ff02191690831515021790555050565b600260003373ffffffffffffffffffffffffffffffffffffffff1673ffffffffffffffffffffffffffffffffffffffff16815260200190815260200160002060009054906101000a900460ff166101e8576040517f08c379a00000000000000000000000000000000000000000000000000000000081526004016101df906107f0565b60405180910390fd5b60038160000151600001516040516102009190610797565b908152602001604051809103902060009054906101000a900460ff1615801561025a5750600381602001516000015160405161023c9190610797565b908152602001604051809103902060009054906101000a900460ff16155b610299576040517f08c379a0000000000000000000000000000000000000000000000000000000008152600401610290906107d0565b60405180910390fd5b600160038260200151600001516040516102b39190610797565b908152602001604051809103902060006101000a81548160ff0219169083151502179055507fcffa00506e7b4e6fffe7a2167406482d8829f3d9c6e4b3f3292a42ad3cd2cb20816040516103079190610830565b60405180910390a1600160009054906101000a900473ffffffffffffffffffffffffffffffffffffffff1673ffffffffffffffffffffffffffffffffffffffff16637a7cd0818260200151600001516040518263ffffffff1660e01b815260040161037291906107ae565b600060405180830381600087803b15801561038c57600080fd5b505af11580156103a0573d6000803e3d6000fd5b5050505050565b60006103ba6103b584610883565b610852565b9050828152602081018484840111156103d257600080fd5b6103dd84828561091d565b509392505050565b6000813590506103f48161099f565b92915050565b600082601f83011261040b57600080fd5b813561041b8482602086016103a7565b91505092915050565b60006060828403121561043657600080fd5b6104406060610852565b9050600082013567ffffffffffffffff81111561045c57600080fd5b610468848285016104cc565b600083015250602082013567ffffffffffffffff81111561048857600080fd5b610494848285016104cc565b602083015250604082013567ffffffffffffffff8111156104b457600080fd5b6104c0848285016104cc565b60408301525092915050565b6000602082840312156104de57600080fd5b6104e86020610852565b9050600082013567ffffffffffffffff81111561050457600080fd5b610510848285016103fa565b60008301525092915050565b60006020828403121561052e57600080fd5b600061053c848285016103e5565b91505092915050565b60006020828403121561055757600080fd5b600082013567ffffffffffffffff81111561057157600080fd5b61057d84828501610424565b91505092915050565b6000610591826108b3565b61059b81856108be565b93506105ab81856020860161092c565b6105b48161098e565b840191505092915050565b60006105ca826108b3565b6105d481856108cf565b93506105e481856020860161092c565b6105ed8161098e565b840191505092915050565b6000610603826108b3565b61060d81856108e0565b935061061d81856020860161092c565b80840191505092915050565b60006106366010836108cf565b91507f496e76616c696420646f63756d656e74000000000000000000000000000000006000830152602082019050919050565b60006106766023836108cf565b91507f43616c6c6572206973206e6f742063657274696669656420696e73746974757460008301527f696f6e00000000000000000000000000000000000000000000000000000000006020830152604082019050919050565b60006106dc6013836108cf565b91507f43616c6c6572206973206e6f742061646d696e000000000000000000000000006000830152602082019050919050565b6000606083016000830151848203600086015261072c828261076d565b91505060208301518482036020860152610746828261076d565b91505060408301518482036040860152610760828261076d565b9150508091505092915050565b6000602083016000830151848203600086015261078a8282610586565b9150508091505092915050565b60006107a382846105f8565b915081905092915050565b600060208201905081810360008301526107c881846105bf565b905092915050565b600060208201905081810360008301526107e981610629565b9050919050565b6000602082019050818103600083015261080981610669565b9050919050565b60006020820190508181036000830152610829816106cf565b9050919050565b6000602082019050818103600083015261084a818461070f565b905092915050565b6000604051905081810181811067ffffffffffffffff821117156108795761087861095f565b5b8060405250919050565b600067ffffffffffffffff82111561089e5761089d61095f565b5b601f19601f8301169050602081019050919050565b600081519050919050565b600082825260208201905092915050565b600082825260208201905092915050565b600081905092915050565b60006108f6826108fd565b9050919050565b600073ffffffffffffffffffffffffffffffffffffffff82169050919050565b82818337600083830152505050565b60005b8381101561094a57808201518184015260208101905061092f565b83811115610959576000848401525b50505050565b7f4e487b7100000000000000000000000000000000000000000000000000000000600052604160045260246000fd5b6000601f19601f8301169050919050565b6109a8816108eb565b81146109b357600080fd5b5056fea264697066735822122085947718274007a3126355541d495f4251b3d1d4c80fb8017697e800b8960cf164736f6c63430008000033",
  "immutableReferences": {},
  "source": "// SPDX-License-Identifier: GPL-3.0\r\n\r\npragma solidity >=0.4.22 <0.9.0;\r\n\r\nimport \"./EtherWill.sol\";\r\n\r\ncontract DeathCertificate {\r\n    struct Person {\r\n        string NIN; // EGN in Bulgaria\r\n    }\r\n\r\n    struct Document {\r\n        Person announcer;\r\n        Person dead;\r\n        Person doctor;\r\n    }\r\n\r\n    address private admin;\r\n\r\n    EtherWill private etherWillAddr;\r\n    \r\n    mapping(address => bool) private certifiedInstitustions;\r\n\r\n    mapping(string => bool) private deadPeople;\r\n\r\n    // The event for the event listener\r\n    event Death(Document document);\r\n\r\n    constructor(address payable _addr) {\r\n        admin = msg.sender;\r\n        etherWillAddr = EtherWill(_addr);\r\n    }\r\n\r\n    modifier isAdmin() {\r\n        require(msg.sender == admin, \"Caller is not admin\");\r\n        _;\r\n    }\r\n\r\n    modifier isCertifiedInstitution() {\r\n        require(certifiedInstitustions[msg.sender], \"Caller is not certified institution\");\r\n        _;\r\n    }\r\n\r\n    function addCertifiedInstitution(address institution) public isAdmin {\r\n        certifiedInstitustions[institution] = true;\r\n    }\r\n\r\n    function announceDeath(Document memory document) public isCertifiedInstitution {\r\n        require(!deadPeople[document.announcer.NIN] && !deadPeople[document.dead.NIN], \"Invalid document\");\r\n        deadPeople[document.dead.NIN] = true;\r\n\r\n        emit Death(document);\r\n        etherWillAddr.executeWills(document.dead.NIN);\r\n        // call Wills smart contract\r\n    }\r\n}\r\n",
  "sourcePath": "F:\\jorko\\FMI\\willChain\\contracts\\DeathCertificate.sol",
  "compiler": {
    "name": "solc",
    "version": "0.8.0+commit.c7dfd78e.Emscripten.clang"
  },
  "schemaVersion": "3.4.7",
  "updatedAt": "2022-06-11T16:10:22.053Z",
  "networkType": "ethereum",
  "devdoc": {
    "kind": "dev",
    "methods": {},
    "version": 1
  },
  "userdoc": {
    "kind": "user",
    "methods": {},
    "version": 1
  }
}