{
  "contractName": "EtherWill",
  "abi": [
    {
      "inputs": [],
      "stateMutability": "nonpayable",
      "type": "constructor"
    },
    {
      "anonymous": false,
      "inputs": [
        {
          "indexed": false,
          "internalType": "address",
          "name": "testator",
          "type": "address"
        },
        {
          "components": [
            {
              "internalType": "address",
              "name": "to",
              "type": "address"
            },
            {
              "internalType": "uint256",
              "name": "amount",
              "type": "uint256"
            }
          ],
          "indexed": false,
          "internalType": "struct EtherWill.Clause[]",
          "name": "clauses",
          "type": "tuple[]"
        }
      ],
      "name": "ExecutedWill",
      "type": "event"
    },
    {
      "inputs": [
        {
          "internalType": "string",
          "name": "",
          "type": "string"
        }
      ],
      "name": "accounts",
      "outputs": [
        {
          "internalType": "address",
          "name": "",
          "type": "address"
        }
      ],
      "stateMutability": "view",
      "type": "function",
      "constant": true
    },
    {
      "inputs": [
        {
          "internalType": "address",
          "name": "",
          "type": "address"
        }
      ],
      "name": "certifiedMiddlewares",
      "outputs": [
        {
          "internalType": "bool",
          "name": "",
          "type": "bool"
        }
      ],
      "stateMutability": "view",
      "type": "function",
      "constant": true
    },
    {
      "inputs": [
        {
          "internalType": "address",
          "name": "",
          "type": "address"
        },
        {
          "internalType": "uint256",
          "name": "",
          "type": "uint256"
        }
      ],
      "name": "wills",
      "outputs": [
        {
          "internalType": "address",
          "name": "to",
          "type": "address"
        },
        {
          "internalType": "uint256",
          "name": "amount",
          "type": "uint256"
        }
      ],
      "stateMutability": "view",
      "type": "function",
      "constant": true
    },
    {
      "stateMutability": "payable",
      "type": "receive",
      "payable": true
    },
    {
      "inputs": [],
      "name": "GetAdmin",
      "outputs": [
        {
          "internalType": "address",
          "name": "",
          "type": "address"
        }
      ],
      "stateMutability": "view",
      "type": "function",
      "constant": true
    },
    {
      "inputs": [
        {
          "internalType": "string",
          "name": "personalNIN",
          "type": "string"
        }
      ],
      "name": "register",
      "outputs": [],
      "stateMutability": "nonpayable",
      "type": "function"
    },
    {
      "inputs": [
        {
          "internalType": "string",
          "name": "personalNIN",
          "type": "string"
        },
        {
          "internalType": "address",
          "name": "to",
          "type": "address"
        }
      ],
      "name": "deleteWillTo",
      "outputs": [],
      "stateMutability": "payable",
      "type": "function",
      "payable": true
    },
    {
      "inputs": [
        {
          "internalType": "address",
          "name": "middleware",
          "type": "address"
        }
      ],
      "name": "addCertifiedMiddleware",
      "outputs": [],
      "stateMutability": "nonpayable",
      "type": "function"
    },
    {
      "inputs": [
        {
          "internalType": "string",
          "name": "personalNIN",
          "type": "string"
        },
        {
          "components": [
            {
              "internalType": "address",
              "name": "to",
              "type": "address"
            },
            {
              "internalType": "uint256",
              "name": "amount",
              "type": "uint256"
            }
          ],
          "internalType": "struct EtherWill.Clause[]",
          "name": "clauses",
          "type": "tuple[]"
        }
      ],
      "name": "createWill",
      "outputs": [],
      "stateMutability": "payable",
      "type": "function",
      "payable": true
    },
    {
      "inputs": [
        {
          "internalType": "string",
          "name": "personalNIN",
          "type": "string"
        }
      ],
      "name": "executeWills",
      "outputs": [],
      "stateMutability": "payable",
      "type": "function",
      "payable": true
    }
  ],
  "bytecode": "0x608060405234801561001057600080fd5b50336000806101000a81548173ffffffffffffffffffffffffffffffffffffffff021916908373ffffffffffffffffffffffffffffffffffffffff160217905550611e4b806100606000396000f3fe60806040526004361061008a5760003560e01c80637a7cd081116100595780637a7cd08114610179578063a14a026314610195578063a2f47ff4146101b1578063b3b5cacc146101cd578063f2c298be146101f657610091565b806322dd171c1461009657806330390414146100d457806357fce39d1461011157806378737b831461013c57610091565b3661009157005b600080fd5b3480156100a257600080fd5b506100bd60048036038101906100b891906114b7565b61021f565b6040516100cb92919061198c565b60405180910390f35b3480156100e057600080fd5b506100fb60048036038101906100f691906114f3565b610280565b6040516101089190611941565b60405180910390f35b34801561011d57600080fd5b506101266102c9565b6040516101339190611941565b60405180910390f35b34801561014857600080fd5b50610163600480360381019061015e919061148e565b6102f2565b60405161017091906119b5565b60405180910390f35b610193600480360381019061018e91906114f3565b610312565b005b6101af60048036038101906101aa9190611588565b610702565b005b6101cb60048036038101906101c69190611534565b610af8565b005b3480156101d957600080fd5b506101f460048036038101906101ef919061148e565b611125565b005b34801561020257600080fd5b5061021d600480360381019061021891906114f3565b61120d565b005b6002602052816000526040600020818154811061023b57600080fd5b9060005260206000209060020201600091509150508060000160009054906101000a900473ffffffffffffffffffffffffffffffffffffffff16908060010154905082565b6003818051602081018201805184825260208301602085012081835280955050505050506000915054906101000a900473ffffffffffffffffffffffffffffffffffffffff1681565b60008060009054906101000a900473ffffffffffffffffffffffffffffffffffffffff16905090565b60016020528060005260406000206000915054906101000a900460ff1681565b600160003373ffffffffffffffffffffffffffffffffffffffff1673ffffffffffffffffffffffffffffffffffffffff16815260200190815260200160002060009054906101000a900460ff1661039e576040517f08c379a000000000000000000000000000000000000000000000000000000000815260040161039590611a70565b60405180910390fd5b80600073ffffffffffffffffffffffffffffffffffffffff166003826040516103c79190611915565b908152602001604051809103902060009054906101000a900473ffffffffffffffffffffffffffffffffffffffff1673ffffffffffffffffffffffffffffffffffffffff16141561044d576040517f08c379a0000000000000000000000000000000000000000000000000000000008152600401610444906119f0565b60405180910390fd5b6000600260006003856040516104639190611915565b908152602001604051809103902060009054906101000a900473ffffffffffffffffffffffffffffffffffffffff1673ffffffffffffffffffffffffffffffffffffffff1673ffffffffffffffffffffffffffffffffffffffff168152602001908152602001600020805480602002602001604051908101604052809291908181526020016000905b8282101561057e57838290600052602060002090600202016040518060400160405290816000820160009054906101000a900473ffffffffffffffffffffffffffffffffffffffff1673ffffffffffffffffffffffffffffffffffffffff1673ffffffffffffffffffffffffffffffffffffffff168152602001600182015481525050815260200190600101906104ec565b50505050905060005b8151811015610685578181815181106105c9577f4e487b7100000000000000000000000000000000000000000000000000000000600052603260045260246000fd5b60200260200101516000015173ffffffffffffffffffffffffffffffffffffffff166108fc670de0b6b3a7640000848481518110610630577f4e487b7100000000000000000000000000000000000000000000000000000000600052603260045260246000fd5b6020026020010151602001516106469190611bfe565b9081150290604051600060405180830381858888f19350505050158015610671573d6000803e3d6000fd5b50808061067d90611d40565b915050610587565b507f892cee498e1904ec99779475846af70506e9f32c64f55b3d5f4d4c54603f50196003846040516106b79190611915565b908152602001604051809103902060009054906101000a900473ffffffffffffffffffffffffffffffffffffffff16826040516106f592919061195c565b60405180910390a1505050565b81600073ffffffffffffffffffffffffffffffffffffffff1660038260405161072b9190611915565b908152602001604051809103902060009054906101000a900473ffffffffffffffffffffffffffffffffffffffff1673ffffffffffffffffffffffffffffffffffffffff1614156107b1576040517f08c379a00000000000000000000000000000000000000000000000000000000081526004016107a8906119f0565b60405180910390fd5b3373ffffffffffffffffffffffffffffffffffffffff166003846040516107d89190611915565b908152602001604051809103902060009054906101000a900473ffffffffffffffffffffffffffffffffffffffff1673ffffffffffffffffffffffffffffffffffffffff161461085d576040517f08c379a000000000000000000000000000000000000000000000000000000000815260040161085490611a90565b60405180910390fd5b6000805b83518110156108cf578381815181106108a3577f4e487b7100000000000000000000000000000000000000000000000000000000600052603260045260246000fd5b602002602001015160200151826108ba9190611ba8565b915080806108c790611d40565b915050610861565b50670de0b6b3a7640000816108e49190611bfe565b341015610926576040517f08c379a000000000000000000000000000000000000000000000000000000000815260040161091d90611a30565b60405180910390fd5b6000803073ffffffffffffffffffffffffffffffffffffffff163460405161094d9061192c565b60006040518083038185875af1925050503d806000811461098a576040519150601f19603f3d011682016040523d82523d6000602084013e61098f565b606091505b5091509150816109d4576040517f08c379a00000000000000000000000000000000000000000000000000000000081526004016109cb90611a10565b60405180910390fd5b60005b8551811015610aef57600260003373ffffffffffffffffffffffffffffffffffffffff1673ffffffffffffffffffffffffffffffffffffffff168152602001908152602001600020868281518110610a58577f4e487b7100000000000000000000000000000000000000000000000000000000600052603260045260246000fd5b6020026020010151908060018154018082558091505060019003906000526020600020906002020160009091909190915060008201518160000160006101000a81548173ffffffffffffffffffffffffffffffffffffffff021916908373ffffffffffffffffffffffffffffffffffffffff1602179055506020820151816001015550508080610ae790611d40565b9150506109d7565b50505050505050565b81600073ffffffffffffffffffffffffffffffffffffffff16600382604051610b219190611915565b908152602001604051809103902060009054906101000a900473ffffffffffffffffffffffffffffffffffffffff1673ffffffffffffffffffffffffffffffffffffffff161415610ba7576040517f08c379a0000000000000000000000000000000000000000000000000000000008152600401610b9e906119f0565b60405180910390fd5b3373ffffffffffffffffffffffffffffffffffffffff16600384604051610bce9190611915565b908152602001604051809103902060009054906101000a900473ffffffffffffffffffffffffffffffffffffffff1673ffffffffffffffffffffffffffffffffffffffff1614610c53576040517f08c379a0000000000000000000000000000000000000000000000000000000008152600401610c4a90611a90565b60405180910390fd5b6000805b600260003373ffffffffffffffffffffffffffffffffffffffff1673ffffffffffffffffffffffffffffffffffffffff168152602001908152602001600020805490508110156110c4578373ffffffffffffffffffffffffffffffffffffffff16600260003373ffffffffffffffffffffffffffffffffffffffff1673ffffffffffffffffffffffffffffffffffffffff1681526020019081526020016000208281548110610d2f577f4e487b7100000000000000000000000000000000000000000000000000000000600052603260045260246000fd5b906000526020600020906002020160000160009054906101000a900473ffffffffffffffffffffffffffffffffffffffff1673ffffffffffffffffffffffffffffffffffffffff1614156110b157600260003373ffffffffffffffffffffffffffffffffffffffff1673ffffffffffffffffffffffffffffffffffffffff1681526020019081526020016000208181548110610df4577f4e487b7100000000000000000000000000000000000000000000000000000000600052603260045260246000fd5b90600052602060002090600202016001015482610e119190611ba8565b91506000600260003373ffffffffffffffffffffffffffffffffffffffff1673ffffffffffffffffffffffffffffffffffffffff168152602001908152602001600020805490509050600260003373ffffffffffffffffffffffffffffffffffffffff1673ffffffffffffffffffffffffffffffffffffffff168152602001908152602001600020600182610ea69190611c58565b81548110610edd577f4e487b7100000000000000000000000000000000000000000000000000000000600052603260045260246000fd5b9060005260206000209060020201600260003373ffffffffffffffffffffffffffffffffffffffff1673ffffffffffffffffffffffffffffffffffffffff1681526020019081526020016000208381548110610f62577f4e487b7100000000000000000000000000000000000000000000000000000000600052603260045260246000fd5b90600052602060002090600202016000820160009054906101000a900473ffffffffffffffffffffffffffffffffffffffff168160000160006101000a81548173ffffffffffffffffffffffffffffffffffffffff021916908373ffffffffffffffffffffffffffffffffffffffff16021790555060018201548160010155905050600260003373ffffffffffffffffffffffffffffffffffffffff1673ffffffffffffffffffffffffffffffffffffffff168152602001908152602001600020805480611059577f4e487b7100000000000000000000000000000000000000000000000000000000600052603160045260246000fd5b6001900381819060005260206000209060020201600080820160006101000a81549073ffffffffffffffffffffffffffffffffffffffff021916905560018201600090555050905581806110ac90611d16565b925050505b80806110bc90611d40565b915050610c57565b503373ffffffffffffffffffffffffffffffffffffffff166108fc670de0b6b3a7640000836110f39190611bfe565b9081150290604051600060405180830381858888f1935050505015801561111e573d6000803e3d6000fd5b5050505050565b60008054906101000a900473ffffffffffffffffffffffffffffffffffffffff1673ffffffffffffffffffffffffffffffffffffffff163373ffffffffffffffffffffffffffffffffffffffff16146111b3576040517f08c379a00000000000000000000000000000000000000000000000000000000081526004016111aa90611a50565b60405180910390fd5b60018060008373ffffffffffffffffffffffffffffffffffffffff1673ffffffffffffffffffffffffffffffffffffffff16815260200190815260200160002060006101000a81548160ff02191690831515021790555050565b600073ffffffffffffffffffffffffffffffffffffffff166003826040516112359190611915565b908152602001604051809103902060009054906101000a900473ffffffffffffffffffffffffffffffffffffffff1673ffffffffffffffffffffffffffffffffffffffff16146112ba576040517f08c379a00000000000000000000000000000000000000000000000000000000081526004016112b1906119d0565b60405180910390fd5b336003826040516112cb9190611915565b908152602001604051809103902060006101000a81548173ffffffffffffffffffffffffffffffffffffffff021916908373ffffffffffffffffffffffffffffffffffffffff16021790555050565b600061132d61132884611ae1565b611ab0565b9050808382526020820190508285604086028201111561134c57600080fd5b60005b8581101561137c5781611362888261142d565b84526020840193506040830192505060018101905061134f565b5050509392505050565b600061139961139484611b0d565b611ab0565b9050828152602081018484840111156113b157600080fd5b6113bc848285611cd4565b509392505050565b6000813590506113d381611de7565b92915050565b600082601f8301126113ea57600080fd5b81356113fa84826020860161131a565b91505092915050565b600082601f83011261141457600080fd5b8135611424848260208601611386565b91505092915050565b60006040828403121561143f57600080fd5b6114496040611ab0565b90506000611459848285016113c4565b600083015250602061146d84828501611479565b60208301525092915050565b60008135905061148881611dfe565b92915050565b6000602082840312156114a057600080fd5b60006114ae848285016113c4565b91505092915050565b600080604083850312156114ca57600080fd5b60006114d8858286016113c4565b92505060206114e985828601611479565b9150509250929050565b60006020828403121561150557600080fd5b600082013567ffffffffffffffff81111561151f57600080fd5b61152b84828501611403565b91505092915050565b6000806040838503121561154757600080fd5b600083013567ffffffffffffffff81111561156157600080fd5b61156d85828601611403565b925050602061157e858286016113c4565b9150509250929050565b6000806040838503121561159b57600080fd5b600083013567ffffffffffffffff8111156115b557600080fd5b6115c185828601611403565b925050602083013567ffffffffffffffff8111156115de57600080fd5b6115ea858286016113d9565b9150509250929050565b600061160083836118c8565b60408301905092915050565b61161581611c8c565b82525050565b61162481611c8c565b82525050565b600061163582611b4d565b61163f8185611b70565b935061164a83611b3d565b8060005b8381101561167b57815161166288826115f4565b975061166d83611b63565b92505060018101905061164e565b5085935050505092915050565b61169181611c9e565b82525050565b60006116a282611b58565b6116ac8185611b9d565b93506116bc818560208601611ce3565b80840191505092915050565b60006116d5601483611b8c565b91507f416c6c72656164792072656769737465726564210000000000000000000000006000830152602082019050919050565b6000611715600f83611b8c565b91507f4e6f7420726567697374657265642100000000000000000000000000000000006000830152602082019050919050565b6000611755601483611b8c565b91507f4661696c656420746f2073656e642045746865720000000000000000000000006000830152602082019050919050565b6000611795601283611b8c565b91507f4e6f7420656e6f756768206574686572732100000000000000000000000000006000830152602082019050919050565b60006117d5600083611b81565b9150600082019050919050565b60006117ef601483611b8c565b91507f43616c6c6572206973206e6f742061646d696e210000000000000000000000006000830152602082019050919050565b600061182f602383611b8c565b91507f43616c6c6572206973206e6f7420636572746966696564204d6964646c65776160008301527f72652100000000000000000000000000000000000000000000000000000000006020830152604082019050919050565b6000611895600c83611b8c565b91507f4e6f7420796f7572204e494e00000000000000000000000000000000000000006000830152602082019050919050565b6040820160008201516118de600085018261160c565b5060208201516118f160208501826118f7565b50505050565b61190081611cca565b82525050565b61190f81611cca565b82525050565b60006119218284611697565b915081905092915050565b6000611937826117c8565b9150819050919050565b6000602082019050611956600083018461161b565b92915050565b6000604082019050611971600083018561161b565b8181036020830152611983818461162a565b90509392505050565b60006040820190506119a1600083018561161b565b6119ae6020830184611906565b9392505050565b60006020820190506119ca6000830184611688565b92915050565b600060208201905081810360008301526119e9816116c8565b9050919050565b60006020820190508181036000830152611a0981611708565b9050919050565b60006020820190508181036000830152611a2981611748565b9050919050565b60006020820190508181036000830152611a4981611788565b9050919050565b60006020820190508181036000830152611a69816117e2565b9050919050565b60006020820190508181036000830152611a8981611822565b9050919050565b60006020820190508181036000830152611aa981611888565b9050919050565b6000604051905081810181811067ffffffffffffffff82111715611ad757611ad6611db8565b5b8060405250919050565b600067ffffffffffffffff821115611afc57611afb611db8565b5b602082029050602081019050919050565b600067ffffffffffffffff821115611b2857611b27611db8565b5b601f19601f8301169050602081019050919050565b6000819050602082019050919050565b600081519050919050565b600081519050919050565b6000602082019050919050565b600082825260208201905092915050565b600081905092915050565b600082825260208201905092915050565b600081905092915050565b6000611bb382611cca565b9150611bbe83611cca565b9250827fffffffffffffffffffffffffffffffffffffffffffffffffffffffffffffffff03821115611bf357611bf2611d89565b5b828201905092915050565b6000611c0982611cca565b9150611c1483611cca565b9250817fffffffffffffffffffffffffffffffffffffffffffffffffffffffffffffffff0483118215151615611c4d57611c4c611d89565b5b828202905092915050565b6000611c6382611cca565b9150611c6e83611cca565b925082821015611c8157611c80611d89565b5b828203905092915050565b6000611c9782611caa565b9050919050565b60008115159050919050565b600073ffffffffffffffffffffffffffffffffffffffff82169050919050565b6000819050919050565b82818337600083830152505050565b60005b83811015611d01578082015181840152602081019050611ce6565b83811115611d10576000848401525b50505050565b6000611d2182611cca565b91506000821415611d3557611d34611d89565b5b600182039050919050565b6000611d4b82611cca565b91507fffffffffffffffffffffffffffffffffffffffffffffffffffffffffffffffff821415611d7e57611d7d611d89565b5b600182019050919050565b7f4e487b7100000000000000000000000000000000000000000000000000000000600052601160045260246000fd5b7f4e487b7100000000000000000000000000000000000000000000000000000000600052604160045260246000fd5b611df081611c8c565b8114611dfb57600080fd5b50565b611e0781611cca565b8114611e1257600080fd5b5056fea2646970667358221220b76f3cd2a3acd807c9b3ea1e7750eb7c4cff85c57b3958a205e8433317b7ec7364736f6c63430008000033",
  "immutableReferences": {},
  "source": "// SPDX-License-Identifier: GPL-3.0\r\n\r\npragma solidity >=0.4.22 <0.9.0;\r\n\r\ncontract EtherWill {\r\n\r\n    struct Clause {\r\n        address to;\r\n        uint amount; // in ether\r\n    }\r\n\r\n    address private admin;\r\n\r\n    mapping(address => bool) /*private*/ public certifiedMiddlewares; //edin address na DC \r\n\r\n    mapping(address => Clause[]) /*private*/ public wills;\r\n\r\n    mapping(string => address) /*private*/ public accounts;\r\n\r\n    event ExecutedWill(address testator, Clause[] clauses);\r\n\r\n    function GetAdmin() public view returns(address) {\r\n        return admin;\r\n    }\r\n\r\n    modifier isAdmin() {\r\n        require(msg.sender == admin, \"Caller is not admin!\");\r\n        _;\r\n    }\r\n\r\n    modifier isCertifiedMiddleware() {\r\n        require(certifiedMiddlewares[msg.sender], \"Caller is not certified Middleware!\");\r\n        _;\r\n    }\r\n\r\n    modifier isRegistered(string memory personalNIN) {\r\n        require(accounts[personalNIN] != address(0), \"Not registered!\");\r\n        _;\r\n    }\r\n\r\n    constructor() {\r\n        admin = msg.sender;\r\n    }\r\n\r\n    // Only the Dapp will call it\r\n    function register(string memory personalNIN) public {\r\n        require(accounts[personalNIN] == address(0), \"Allready registered!\");\r\n\r\n        accounts[personalNIN] = msg.sender;\r\n    }\r\n\r\n    function deleteWillTo(string memory personalNIN, address to) public payable isRegistered(personalNIN) {\r\n        require(accounts[personalNIN] == msg.sender, \"Not your NIN\");\r\n\r\n        // How much we need to transfer back to the user\r\n        uint amountToReturn = 0;\r\n\r\n        for (uint i = 0; i < wills[msg.sender].length; i++) {\r\n            if (wills[msg.sender][i].to == to) {\r\n                amountToReturn += wills[msg.sender][i].amount;\r\n\r\n                uint length = wills[msg.sender].length;\r\n                // Delete the clause\r\n                wills[msg.sender][i] = wills[msg.sender][length - 1];\r\n                wills[msg.sender].pop();\r\n                i--; // To check if the last element also satisfy the removal condition\r\n            }\r\n        }\r\n        // Not sure if we need to charge the user for the gas\r\n        payable(msg.sender).transfer(amountToReturn * (1 ether));\r\n    }\r\n\r\n    function addCertifiedMiddleware(address middleware) public isAdmin {\r\n        certifiedMiddlewares[middleware] = true;\r\n    }\r\n\r\n    function createWill(string memory personalNIN, Clause[] memory clauses) public payable isRegistered(personalNIN) {\r\n        require(accounts[personalNIN] == msg.sender, \"Not your NIN\");\r\n\r\n        // Check if the user has enough ETH\r\n        uint willAmount = 0;\r\n        for (uint i = 0; i < clauses.length; i++) {\r\n            willAmount += clauses[i].amount;\r\n        }\r\n        require(msg.value >= willAmount * (1 ether), \"Not enough ethers!\");\r\n\r\n        // Lock the will ethers in the smart contract\r\n        // Check if without this is ok\r\n        (bool sent, bytes memory data) = address(this).call{value: msg.value}(\"\");\r\n        require(sent, \"Failed to send Ether\");\r\n\r\n        // Add the will clauses\r\n        for (uint i = 0; i < clauses.length; i++) {\r\n            wills[msg.sender].push(clauses[i]);\r\n        }\r\n    }\r\n\r\n    receive() external payable {}\r\n\r\n    // Executes the wills of the dead person if they have an account\r\n    // Triggered by the event listener  / other smart contract /\r\n    function executeWills(string memory personalNIN) public payable isCertifiedMiddleware isRegistered(personalNIN) {\r\n        Clause[] memory testatorWills = wills[accounts[personalNIN]];\r\n\r\n        for (uint i = 0; i < testatorWills.length; i++) {\r\n            payable(testatorWills[i].to).transfer(testatorWills[i].amount * (1 ether));\r\n        }\r\n\r\n        emit ExecutedWill(accounts[personalNIN], testatorWills);\r\n    }\r\n}\r\n",
  "sourcePath": "F:\\jorko\\FMI\\willChain\\contracts\\EtherWill.sol",
  "compiler": {
    "name": "solc",
    "version": "0.8.0+commit.c7dfd78e.Emscripten.clang"
  },
  "schemaVersion": "3.4.7",
  "updatedAt": "2022-06-11T16:10:22.045Z",
  "networkType": "ethereum",
  "devdoc": {
    "kind": "dev",
    "methods": {},
    "version": 1
  },
  "userdoc": {
    "kind": "user",
    "methods": {},
    "version": 1
  }
}