{
  "contractName": "EtherWill",
  "abi": [
    {
      "inputs": [],
      "stateMutability": "nonpayable",
      "type": "constructor"
    },
    {
      "anonymous": false,
      "inputs": [
        {
          "indexed": false,
          "internalType": "address",
          "name": "testator",
          "type": "address"
        },
        {
          "components": [
            {
              "internalType": "address",
              "name": "to",
              "type": "address"
            },
            {
              "internalType": "uint256",
              "name": "amount",
              "type": "uint256"
            }
          ],
          "indexed": false,
          "internalType": "struct EtherWill.Clause[]",
          "name": "clauses",
          "type": "tuple[]"
        }
      ],
      "name": "ExecutedWill",
      "type": "event"
    },
    {
      "anonymous": false,
      "inputs": [
        {
          "indexed": false,
          "internalType": "string",
          "name": "func",
          "type": "string"
        },
        {
          "indexed": false,
          "internalType": "address",
          "name": "sender",
          "type": "address"
        },
        {
          "indexed": false,
          "internalType": "uint256",
          "name": "value",
          "type": "uint256"
        }
      ],
      "name": "Log",
      "type": "event"
    },
    {
      "stateMutability": "payable",
      "type": "receive",
      "payable": true
    },
    {
      "inputs": [
        {
          "internalType": "address",
          "name": "addr",
          "type": "address"
        }
      ],
      "name": "getWills",
      "outputs": [
        {
          "components": [
            {
              "internalType": "address",
              "name": "to",
              "type": "address"
            },
            {
              "internalType": "uint256",
              "name": "amount",
              "type": "uint256"
            }
          ],
          "internalType": "struct EtherWill.Clause[]",
          "name": "",
          "type": "tuple[]"
        }
      ],
      "stateMutability": "view",
      "type": "function",
      "constant": true
    },
    {
      "inputs": [
        {
          "internalType": "string",
          "name": "NIN",
          "type": "string"
        }
      ],
      "name": "getAccount",
      "outputs": [
        {
          "internalType": "address",
          "name": "",
          "type": "address"
        }
      ],
      "stateMutability": "view",
      "type": "function",
      "constant": true
    },
    {
      "inputs": [],
      "name": "getAdmin",
      "outputs": [
        {
          "internalType": "address",
          "name": "",
          "type": "address"
        }
      ],
      "stateMutability": "view",
      "type": "function",
      "constant": true
    },
    {
      "inputs": [],
      "name": "getDeathCertificateAddr",
      "outputs": [
        {
          "internalType": "address",
          "name": "",
          "type": "address"
        }
      ],
      "stateMutability": "view",
      "type": "function",
      "constant": true
    },
    {
      "inputs": [
        {
          "internalType": "string",
          "name": "personalNIN",
          "type": "string"
        }
      ],
      "name": "amIReggistered",
      "outputs": [
        {
          "internalType": "bool",
          "name": "",
          "type": "bool"
        }
      ],
      "stateMutability": "view",
      "type": "function",
      "constant": true
    },
    {
      "inputs": [
        {
          "internalType": "string",
          "name": "personalNIN",
          "type": "string"
        }
      ],
      "name": "register",
      "outputs": [],
      "stateMutability": "nonpayable",
      "type": "function"
    },
    {
      "inputs": [
        {
          "internalType": "address",
          "name": "addr",
          "type": "address"
        }
      ],
      "name": "setDeathSertificateAddr",
      "outputs": [],
      "stateMutability": "nonpayable",
      "type": "function"
    },
    {
      "inputs": [
        {
          "internalType": "string",
          "name": "personalNIN",
          "type": "string"
        },
        {
          "internalType": "address",
          "name": "to",
          "type": "address"
        }
      ],
      "name": "deleteWillTo",
      "outputs": [],
      "stateMutability": "payable",
      "type": "function",
      "payable": true
    },
    {
      "inputs": [],
      "name": "getMyWill",
      "outputs": [
        {
          "components": [
            {
              "internalType": "address",
              "name": "to",
              "type": "address"
            },
            {
              "internalType": "uint256",
              "name": "amount",
              "type": "uint256"
            }
          ],
          "internalType": "struct EtherWill.Clause[]",
          "name": "",
          "type": "tuple[]"
        }
      ],
      "stateMutability": "view",
      "type": "function",
      "constant": true
    },
    {
      "inputs": [
        {
          "internalType": "string",
          "name": "personalNIN",
          "type": "string"
        },
        {
          "components": [
            {
              "internalType": "address",
              "name": "to",
              "type": "address"
            },
            {
              "internalType": "uint256",
              "name": "amount",
              "type": "uint256"
            }
          ],
          "internalType": "struct EtherWill.Clause[]",
          "name": "clauses",
          "type": "tuple[]"
        }
      ],
      "name": "createWill",
      "outputs": [],
      "stateMutability": "payable",
      "type": "function",
      "payable": true
    },
    {
      "inputs": [
        {
          "internalType": "string",
          "name": "personalNIN",
          "type": "string"
        }
      ],
      "name": "executeWills",
      "outputs": [],
      "stateMutability": "payable",
      "type": "function",
      "payable": true
    }
  ],
  "bytecode": "0x608060405234801561001057600080fd5b50336000806101000a81548173ffffffffffffffffffffffffffffffffffffffff021916908373ffffffffffffffffffffffffffffffffffffffff160217905550611fe5806100606000396000f3fe6080604052600436106100a05760003560e01c8063a2f47ff411610064578063a2f47ff4146101b0578063af5a5d97146101cc578063c7d75af3146101f7578063edaf5ec614610234578063f2c298be14610271578063ff1d98931461029a576100e0565b80634518f6b3146100e55780634ebf85d5146101225780636e9960c31461014d5780637a7cd08114610178578063a14a026314610194576100e0565b366100e0577f31f37e75fc861191c989b3f8011596a4c0dd2bd2b255a7072a7d94fdb895a72433346040516100d6929190611bb9565b60405180910390a1005b600080fd5b3480156100f157600080fd5b5061010c600480360381019061010791906116b2565b6102c3565b6040516101199190611ad1565b60405180910390f35b34801561012e57600080fd5b5061013761030b565b6040516101449190611ad1565b60405180910390f35b34801561015957600080fd5b50610162610335565b60405161016f9190611ad1565b60405180910390f35b610192600480360381019061018d91906116b2565b61035e565b005b6101ae60048036038101906101a99190611747565b610752565b005b6101ca60048036038101906101c591906116f3565b610a98565b005b3480156101d857600080fd5b506101e16110c5565b6040516101ee9190611b1c565b60405180910390f35b34801561020357600080fd5b5061021e600480360381019061021991906116b2565b6111c1565b60405161022b9190611b3e565b60405180910390f35b34801561024057600080fd5b5061025b60048036038101906102569190611689565b611238565b6040516102689190611b1c565b60405180910390f35b34801561027d57600080fd5b50610298600480360381019061029391906116b2565b611336565b005b3480156102a657600080fd5b506102c160048036038101906102bc9190611689565b611443565b005b60006003826040516102d59190611aba565b908152602001604051809103902060009054906101000a900473ffffffffffffffffffffffffffffffffffffffff169050919050565b6000600160009054906101000a900473ffffffffffffffffffffffffffffffffffffffff16905090565b60008060009054906101000a900473ffffffffffffffffffffffffffffffffffffffff16905090565b3373ffffffffffffffffffffffffffffffffffffffff16600160009054906101000a900473ffffffffffffffffffffffffffffffffffffffff1673ffffffffffffffffffffffffffffffffffffffff16146103ee576040517f08c379a00000000000000000000000000000000000000000000000000000000081526004016103e590611c15565b60405180910390fd5b80600073ffffffffffffffffffffffffffffffffffffffff166003826040516104179190611aba565b908152602001604051809103902060009054906101000a900473ffffffffffffffffffffffffffffffffffffffff1673ffffffffffffffffffffffffffffffffffffffff16141561049d576040517f08c379a000000000000000000000000000000000000000000000000000000000815260040161049490611b79565b60405180910390fd5b6000600260006003856040516104b39190611aba565b908152602001604051809103902060009054906101000a900473ffffffffffffffffffffffffffffffffffffffff1673ffffffffffffffffffffffffffffffffffffffff1673ffffffffffffffffffffffffffffffffffffffff168152602001908152602001600020805480602002602001604051908101604052809291908181526020016000905b828210156105ce57838290600052602060002090600202016040518060400160405290816000820160009054906101000a900473ffffffffffffffffffffffffffffffffffffffff1673ffffffffffffffffffffffffffffffffffffffff1673ffffffffffffffffffffffffffffffffffffffff1681526020016001820154815250508152602001906001019061053c565b50505050905060005b81518110156106d557818181518110610619577f4e487b7100000000000000000000000000000000000000000000000000000000600052603260045260246000fd5b60200260200101516000015173ffffffffffffffffffffffffffffffffffffffff166108fc670de0b6b3a7640000848481518110610680577f4e487b7100000000000000000000000000000000000000000000000000000000600052603260045260246000fd5b6020026020010151602001516106969190611d98565b9081150290604051600060405180830381858888f193505050501580156106c1573d6000803e3d6000fd5b5080806106cd90611eda565b9150506105d7565b507f892cee498e1904ec99779475846af70506e9f32c64f55b3d5f4d4c54603f50196003846040516107079190611aba565b908152602001604051809103902060009054906101000a900473ffffffffffffffffffffffffffffffffffffffff1682604051610745929190611aec565b60405180910390a1505050565b81600073ffffffffffffffffffffffffffffffffffffffff1660038260405161077b9190611aba565b908152602001604051809103902060009054906101000a900473ffffffffffffffffffffffffffffffffffffffff1673ffffffffffffffffffffffffffffffffffffffff161415610801576040517f08c379a00000000000000000000000000000000000000000000000000000000081526004016107f890611b79565b60405180910390fd5b3373ffffffffffffffffffffffffffffffffffffffff166003846040516108289190611aba565b908152602001604051809103902060009054906101000a900473ffffffffffffffffffffffffffffffffffffffff1673ffffffffffffffffffffffffffffffffffffffff16146108ad576040517f08c379a00000000000000000000000000000000000000000000000000000000081526004016108a490611c35565b60405180910390fd5b6000805b835181101561091f578381815181106108f3577f4e487b7100000000000000000000000000000000000000000000000000000000600052603260045260246000fd5b6020026020010151602001518261090a9190611d42565b9150808061091790611eda565b9150506108b1565b50670de0b6b3a7640000816109349190611d98565b341015610976576040517f08c379a000000000000000000000000000000000000000000000000000000000815260040161096d90611b99565b60405180910390fd5b60005b8351811015610a9157600260003373ffffffffffffffffffffffffffffffffffffffff1673ffffffffffffffffffffffffffffffffffffffff1681526020019081526020016000208482815181106109fa577f4e487b7100000000000000000000000000000000000000000000000000000000600052603260045260246000fd5b6020026020010151908060018154018082558091505060019003906000526020600020906002020160009091909190915060008201518160000160006101000a81548173ffffffffffffffffffffffffffffffffffffffff021916908373ffffffffffffffffffffffffffffffffffffffff1602179055506020820151816001015550508080610a8990611eda565b915050610979565b5050505050565b81600073ffffffffffffffffffffffffffffffffffffffff16600382604051610ac19190611aba565b908152602001604051809103902060009054906101000a900473ffffffffffffffffffffffffffffffffffffffff1673ffffffffffffffffffffffffffffffffffffffff161415610b47576040517f08c379a0000000000000000000000000000000000000000000000000000000008152600401610b3e90611b79565b60405180910390fd5b3373ffffffffffffffffffffffffffffffffffffffff16600384604051610b6e9190611aba565b908152602001604051809103902060009054906101000a900473ffffffffffffffffffffffffffffffffffffffff1673ffffffffffffffffffffffffffffffffffffffff1614610bf3576040517f08c379a0000000000000000000000000000000000000000000000000000000008152600401610bea90611c35565b60405180910390fd5b6000805b600260003373ffffffffffffffffffffffffffffffffffffffff1673ffffffffffffffffffffffffffffffffffffffff16815260200190815260200160002080549050811015611064578373ffffffffffffffffffffffffffffffffffffffff16600260003373ffffffffffffffffffffffffffffffffffffffff1673ffffffffffffffffffffffffffffffffffffffff1681526020019081526020016000208281548110610ccf577f4e487b7100000000000000000000000000000000000000000000000000000000600052603260045260246000fd5b906000526020600020906002020160000160009054906101000a900473ffffffffffffffffffffffffffffffffffffffff1673ffffffffffffffffffffffffffffffffffffffff16141561105157600260003373ffffffffffffffffffffffffffffffffffffffff1673ffffffffffffffffffffffffffffffffffffffff1681526020019081526020016000208181548110610d94577f4e487b7100000000000000000000000000000000000000000000000000000000600052603260045260246000fd5b90600052602060002090600202016001015482610db19190611d42565b91506000600260003373ffffffffffffffffffffffffffffffffffffffff1673ffffffffffffffffffffffffffffffffffffffff168152602001908152602001600020805490509050600260003373ffffffffffffffffffffffffffffffffffffffff1673ffffffffffffffffffffffffffffffffffffffff168152602001908152602001600020600182610e469190611df2565b81548110610e7d577f4e487b7100000000000000000000000000000000000000000000000000000000600052603260045260246000fd5b9060005260206000209060020201600260003373ffffffffffffffffffffffffffffffffffffffff1673ffffffffffffffffffffffffffffffffffffffff1681526020019081526020016000208381548110610f02577f4e487b7100000000000000000000000000000000000000000000000000000000600052603260045260246000fd5b90600052602060002090600202016000820160009054906101000a900473ffffffffffffffffffffffffffffffffffffffff168160000160006101000a81548173ffffffffffffffffffffffffffffffffffffffff021916908373ffffffffffffffffffffffffffffffffffffffff16021790555060018201548160010155905050600260003373ffffffffffffffffffffffffffffffffffffffff1673ffffffffffffffffffffffffffffffffffffffff168152602001908152602001600020805480610ff9577f4e487b7100000000000000000000000000000000000000000000000000000000600052603160045260246000fd5b6001900381819060005260206000209060020201600080820160006101000a81549073ffffffffffffffffffffffffffffffffffffffff0219169055600182016000905550509055818061104c90611eb0565b925050505b808061105c90611eda565b915050610bf7565b503373ffffffffffffffffffffffffffffffffffffffff166108fc670de0b6b3a7640000836110939190611d98565b9081150290604051600060405180830381858888f193505050501580156110be573d6000803e3d6000fd5b5050505050565b6060600260003373ffffffffffffffffffffffffffffffffffffffff1673ffffffffffffffffffffffffffffffffffffffff168152602001908152602001600020805480602002602001604051908101604052809291908181526020016000905b828210156111b857838290600052602060002090600202016040518060400160405290816000820160009054906101000a900473ffffffffffffffffffffffffffffffffffffffff1673ffffffffffffffffffffffffffffffffffffffff1673ffffffffffffffffffffffffffffffffffffffff16815260200160018201548152505081526020019060010190611126565b50505050905090565b60008073ffffffffffffffffffffffffffffffffffffffff166003836040516111ea9190611aba565b908152602001604051809103902060009054906101000a900473ffffffffffffffffffffffffffffffffffffffff1673ffffffffffffffffffffffffffffffffffffffff1614159050919050565b6060600260008373ffffffffffffffffffffffffffffffffffffffff1673ffffffffffffffffffffffffffffffffffffffff168152602001908152602001600020805480602002602001604051908101604052809291908181526020016000905b8282101561132b57838290600052602060002090600202016040518060400160405290816000820160009054906101000a900473ffffffffffffffffffffffffffffffffffffffff1673ffffffffffffffffffffffffffffffffffffffff1673ffffffffffffffffffffffffffffffffffffffff16815260200160018201548152505081526020019060010190611299565b505050509050919050565b600073ffffffffffffffffffffffffffffffffffffffff1660038260405161135e9190611aba565b908152602001604051809103902060009054906101000a900473ffffffffffffffffffffffffffffffffffffffff1673ffffffffffffffffffffffffffffffffffffffff16146113e3576040517f08c379a00000000000000000000000000000000000000000000000000000000081526004016113da90611b59565b60405180910390fd5b336003826040516113f49190611aba565b908152602001604051809103902060006101000a81548173ffffffffffffffffffffffffffffffffffffffff021916908373ffffffffffffffffffffffffffffffffffffffff16021790555050565b60008054906101000a900473ffffffffffffffffffffffffffffffffffffffff1673ffffffffffffffffffffffffffffffffffffffff163273ffffffffffffffffffffffffffffffffffffffff16146114d1576040517f08c379a00000000000000000000000000000000000000000000000000000000081526004016114c890611bf5565b60405180910390fd5b80600160006101000a81548173ffffffffffffffffffffffffffffffffffffffff021916908373ffffffffffffffffffffffffffffffffffffffff16021790555050565b600061152861152384611c86565b611c55565b9050808382526020820190508285604086028201111561154757600080fd5b60005b85811015611577578161155d8882611628565b84526020840193506040830192505060018101905061154a565b5050509392505050565b600061159461158f84611cb2565b611c55565b9050828152602081018484840111156115ac57600080fd5b6115b7848285611e6e565b509392505050565b6000813590506115ce81611f81565b92915050565b600082601f8301126115e557600080fd5b81356115f5848260208601611515565b91505092915050565b600082601f83011261160f57600080fd5b813561161f848260208601611581565b91505092915050565b60006040828403121561163a57600080fd5b6116446040611c55565b90506000611654848285016115bf565b600083015250602061166884828501611674565b60208301525092915050565b60008135905061168381611f98565b92915050565b60006020828403121561169b57600080fd5b60006116a9848285016115bf565b91505092915050565b6000602082840312156116c457600080fd5b600082013567ffffffffffffffff8111156116de57600080fd5b6116ea848285016115fe565b91505092915050565b6000806040838503121561170657600080fd5b600083013567ffffffffffffffff81111561172057600080fd5b61172c858286016115fe565b925050602061173d858286016115bf565b9150509250929050565b6000806040838503121561175a57600080fd5b600083013567ffffffffffffffff81111561177457600080fd5b611780858286016115fe565b925050602083013567ffffffffffffffff81111561179d57600080fd5b6117a9858286016115d4565b9150509250929050565b60006117bf8383611a6d565b60408301905092915050565b6117d481611e26565b82525050565b6117e381611e26565b82525050565b60006117f482611cf2565b6117fe8185611d15565b935061180983611ce2565b8060005b8381101561183a57815161182188826117b3565b975061182c83611d08565b92505060018101905061180d565b5085935050505092915050565b61185081611e38565b82525050565b600061186182611cfd565b61186b8185611d37565b935061187b818560208601611e7d565b80840191505092915050565b6000611894601483611d26565b91507f416c6c72656164792072656769737465726564210000000000000000000000006000830152602082019050919050565b60006118d4600f83611d26565b91507f4e6f7420726567697374657265642100000000000000000000000000000000006000830152602082019050919050565b6000611914601283611d26565b91507f4e6f7420656e6f756768206574686572732100000000000000000000000000006000830152602082019050919050565b6000611954600783611d26565b91507f72656365697665000000000000000000000000000000000000000000000000006000830152602082019050919050565b6000611994601483611d26565b91507f43616c6c6572206973206e6f742061646d696e210000000000000000000000006000830152602082019050919050565b60006119d4602383611d26565b91507f43616c6c6572206973206e6f7420636572746966696564204d6964646c65776160008301527f72652100000000000000000000000000000000000000000000000000000000006020830152604082019050919050565b6000611a3a600c83611d26565b91507f4e6f7420796f7572204e494e00000000000000000000000000000000000000006000830152602082019050919050565b604082016000820151611a8360008501826117cb565b506020820151611a966020850182611a9c565b50505050565b611aa581611e64565b82525050565b611ab481611e64565b82525050565b6000611ac68284611856565b915081905092915050565b6000602082019050611ae660008301846117da565b92915050565b6000604082019050611b0160008301856117da565b8181036020830152611b1381846117e9565b90509392505050565b60006020820190508181036000830152611b3681846117e9565b905092915050565b6000602082019050611b536000830184611847565b92915050565b60006020820190508181036000830152611b7281611887565b9050919050565b60006020820190508181036000830152611b92816118c7565b9050919050565b60006020820190508181036000830152611bb281611907565b9050919050565b60006060820190508181036000830152611bd281611947565b9050611be160208301856117da565b611bee6040830184611aab565b9392505050565b60006020820190508181036000830152611c0e81611987565b9050919050565b60006020820190508181036000830152611c2e816119c7565b9050919050565b60006020820190508181036000830152611c4e81611a2d565b9050919050565b6000604051905081810181811067ffffffffffffffff82111715611c7c57611c7b611f52565b5b8060405250919050565b600067ffffffffffffffff821115611ca157611ca0611f52565b5b602082029050602081019050919050565b600067ffffffffffffffff821115611ccd57611ccc611f52565b5b601f19601f8301169050602081019050919050565b6000819050602082019050919050565b600081519050919050565b600081519050919050565b6000602082019050919050565b600082825260208201905092915050565b600082825260208201905092915050565b600081905092915050565b6000611d4d82611e64565b9150611d5883611e64565b9250827fffffffffffffffffffffffffffffffffffffffffffffffffffffffffffffffff03821115611d8d57611d8c611f23565b5b828201905092915050565b6000611da382611e64565b9150611dae83611e64565b9250817fffffffffffffffffffffffffffffffffffffffffffffffffffffffffffffffff0483118215151615611de757611de6611f23565b5b828202905092915050565b6000611dfd82611e64565b9150611e0883611e64565b925082821015611e1b57611e1a611f23565b5b828203905092915050565b6000611e3182611e44565b9050919050565b60008115159050919050565b600073ffffffffffffffffffffffffffffffffffffffff82169050919050565b6000819050919050565b82818337600083830152505050565b60005b83811015611e9b578082015181840152602081019050611e80565b83811115611eaa576000848401525b50505050565b6000611ebb82611e64565b91506000821415611ecf57611ece611f23565b5b600182039050919050565b6000611ee582611e64565b91507fffffffffffffffffffffffffffffffffffffffffffffffffffffffffffffffff821415611f1857611f17611f23565b5b600182019050919050565b7f4e487b7100000000000000000000000000000000000000000000000000000000600052601160045260246000fd5b7f4e487b7100000000000000000000000000000000000000000000000000000000600052604160045260246000fd5b611f8a81611e26565b8114611f9557600080fd5b50565b611fa181611e64565b8114611fac57600080fd5b5056fea2646970667358221220d05491417cbd4bf78cd576dc752d3825e931443688b0e9a9d97a55e5c444a70764736f6c63430008000033",
  "immutableReferences": {},
  "source": "// SPDX-License-Identifier: GPL-3.0\n\npragma solidity >=0.8.0 <0.9.0;\n\ncontract EtherWill {\n\n    struct Clause {\n        address to;\n        uint amount; // in ether\n    }\n\n    address private admin;\n\n    address private deathCertificateAddr;\n\n    mapping(address => Clause[]) private wills;\n\n    mapping(string => address) private accounts;\n\n    event ExecutedWill(address testator, Clause[] clauses);\n\n    event Log(string func, address sender, uint value); //For logging money\n\n    modifier isAdmin() {\n        require(tx.origin == admin, \"Caller is not admin!\");\n        _;\n    }\n\n    modifier isDeathCertificateContract() {\n        require(deathCertificateAddr == msg.sender, \"Caller is not certified Middleware!\");\n        _;\n    }\n\n    modifier isRegistered(string memory personalNIN) {\n        require(accounts[personalNIN] != address(0), \"Not registered!\");\n        _;\n    }\n\n    constructor() {\n        admin = msg.sender;\n    }\n\n    receive() external payable {\n        emit Log(\"receive\", msg.sender, msg.value);\n    }\n\n    function getWills(address addr) public view returns(Clause[] memory) {\n        return wills[addr];\n    }\n\n    function getAccount(string memory NIN) public view returns(address) {\n        return accounts[NIN];\n    }\n\n    function getAdmin() public view returns(address) {\n        return admin;\n    }\n\n    function getDeathCertificateAddr() public view returns(address) {\n        return deathCertificateAddr;\n    }\n\n    // used for testing purposes\n    function amIReggistered(string memory personalNIN) public view returns(bool) {\n        return accounts[personalNIN] != address(0);\n    }\n\n    // Only the Dapp will call it\n    function register(string memory personalNIN) public {\n        require(accounts[personalNIN] == address(0), \"Allready registered!\");\n\n        accounts[personalNIN] = msg.sender;\n    }\n\n    function setDeathSertificateAddr(address addr) public isAdmin {\n        deathCertificateAddr = addr;\n    }\n\n    function deleteWillTo(string memory personalNIN, address to) public payable isRegistered(personalNIN) {\n        require(accounts[personalNIN] == msg.sender, \"Not your NIN\");\n\n        // How much we need to transfer back to the user\n        uint amountToReturn = 0;\n\n        for (uint i = 0; i < wills[msg.sender].length; i++) {\n            if (wills[msg.sender][i].to == to) {\n                amountToReturn += wills[msg.sender][i].amount;\n\n                uint length = wills[msg.sender].length;\n                // Delete the clause\n                wills[msg.sender][i] = wills[msg.sender][length - 1];\n                wills[msg.sender].pop();\n                i--; // To check if the last element also satisfy the removal condition\n            }\n        }\n        // Not sure if we need to charge the user for the gas\n        payable(msg.sender).transfer(amountToReturn * (1 ether));\n    }\n\n    function getMyWill() public view returns(Clause[] memory) {\n        // Clause memory c = Clause({to: address(0), amount: 0});\n        // Clause[] memory arr = new Clause[](1);\n        // arr[0] = c;\n        // return arr;\n        return wills[msg.sender];\n    }\n\n    function createWill(string memory personalNIN, Clause[] memory clauses) public payable isRegistered(personalNIN) {\n        require(accounts[personalNIN] == msg.sender, \"Not your NIN\");\n\n        // Check if the user has enough ETH\n        uint willAmount = 0;\n        for (uint i = 0; i < clauses.length; i++) {\n            willAmount += clauses[i].amount;\n        }\n        require(msg.value >= willAmount * (1 ether), \"Not enough ethers!\");\n\n        // Lock the will ethers in the smart contract\n        // Add the will clauses\n        for (uint i = 0; i < clauses.length; i++) {\n            wills[msg.sender].push(clauses[i]);\n        }\n    }\n\n    // Executes the wills of the dead person if they have an account\n    // Triggered by DeathSertificate contract\n    function executeWills(string memory personalNIN) public payable isDeathCertificateContract isRegistered(personalNIN) {\n        Clause[] memory testatorWills = wills[accounts[personalNIN]];\n\n        // This can be optimized through grouping the wills by the receiver and executing them\n        for (uint i = 0; i < testatorWills.length; i++) {\n            payable(testatorWills[i].to).transfer(testatorWills[i].amount * (1 ether));\n        }\n\n        emit ExecutedWill(accounts[personalNIN], testatorWills);\n    }\n}\n",
  "sourcePath": "/home/astea/fmi/blockhain/will-chain/contracts/EtherWill.sol",
  "compiler": {
    "name": "solc",
    "version": "0.8.0+commit.c7dfd78e.Emscripten.clang"
  },
  "schemaVersion": "3.4.7",
  "updatedAt": "2022-06-12T17:14:45.345Z",
  "networkType": "ethereum",
  "devdoc": {
    "kind": "dev",
    "methods": {},
    "version": 1
  },
  "userdoc": {
    "kind": "user",
    "methods": {},
    "version": 1
  }
}