{
  "contractName": "EtherWill",
  "abi": [
    {
      "inputs": [],
      "stateMutability": "nonpayable",
      "type": "constructor"
    },
    {
      "anonymous": false,
      "inputs": [
        {
          "indexed": false,
          "internalType": "address",
          "name": "testator",
          "type": "address"
        },
        {
          "components": [
            {
              "internalType": "address",
              "name": "to",
              "type": "address"
            },
            {
              "internalType": "uint256",
              "name": "amount",
              "type": "uint256"
            }
          ],
          "indexed": false,
          "internalType": "struct EtherWill.Clause[]",
          "name": "clauses",
          "type": "tuple[]"
        }
      ],
      "name": "ExecutedWill",
      "type": "event"
    },
    {
      "anonymous": false,
      "inputs": [
        {
          "indexed": false,
          "internalType": "string",
          "name": "func",
          "type": "string"
        },
        {
          "indexed": false,
          "internalType": "address",
          "name": "sender",
          "type": "address"
        },
        {
          "indexed": false,
          "internalType": "uint256",
          "name": "value",
          "type": "uint256"
        }
      ],
      "name": "Log",
      "type": "event"
    },
    {
      "stateMutability": "payable",
      "type": "receive",
      "payable": true
    },
    {
      "inputs": [
        {
          "internalType": "address",
          "name": "addr",
          "type": "address"
        }
      ],
      "name": "getWills",
      "outputs": [
        {
          "components": [
            {
              "internalType": "address",
              "name": "to",
              "type": "address"
            },
            {
              "internalType": "uint256",
              "name": "amount",
              "type": "uint256"
            }
          ],
          "internalType": "struct EtherWill.Clause[]",
          "name": "",
          "type": "tuple[]"
        }
      ],
      "stateMutability": "view",
      "type": "function",
      "constant": true
    },
    {
      "inputs": [
        {
          "internalType": "string",
          "name": "NIN",
          "type": "string"
        }
      ],
      "name": "getAccount",
      "outputs": [
        {
          "internalType": "address",
          "name": "",
          "type": "address"
        }
      ],
      "stateMutability": "view",
      "type": "function",
      "constant": true
    },
    {
      "inputs": [],
      "name": "getAdmin",
      "outputs": [
        {
          "internalType": "address",
          "name": "",
          "type": "address"
        }
      ],
      "stateMutability": "view",
      "type": "function",
      "constant": true
    },
    {
      "inputs": [],
      "name": "getDeathCertificateAddr",
      "outputs": [
        {
          "internalType": "address",
          "name": "",
          "type": "address"
        }
      ],
      "stateMutability": "view",
      "type": "function",
      "constant": true
    },
    {
      "inputs": [
        {
          "internalType": "string",
          "name": "personalNIN",
          "type": "string"
        }
      ],
      "name": "amIReggistered",
      "outputs": [
        {
          "internalType": "bool",
          "name": "",
          "type": "bool"
        }
      ],
      "stateMutability": "view",
      "type": "function",
      "constant": true
    },
    {
      "inputs": [
        {
          "internalType": "string",
          "name": "personalNIN",
          "type": "string"
        }
      ],
      "name": "register",
      "outputs": [],
      "stateMutability": "nonpayable",
      "type": "function"
    },
    {
      "inputs": [
        {
          "internalType": "address",
          "name": "addr",
          "type": "address"
        }
      ],
      "name": "setDeathSertificateAddr",
      "outputs": [],
      "stateMutability": "nonpayable",
      "type": "function"
    },
    {
      "inputs": [
        {
          "internalType": "string",
          "name": "personalNIN",
          "type": "string"
        },
        {
          "internalType": "address",
          "name": "to",
          "type": "address"
        }
      ],
      "name": "deleteWillTo",
      "outputs": [],
      "stateMutability": "payable",
      "type": "function",
      "payable": true
    },
    {
      "inputs": [],
      "name": "getMyWill",
      "outputs": [
        {
          "components": [
            {
              "internalType": "address",
              "name": "to",
              "type": "address"
            },
            {
              "internalType": "uint256",
              "name": "amount",
              "type": "uint256"
            }
          ],
          "internalType": "struct EtherWill.Clause[]",
          "name": "",
          "type": "tuple[]"
        }
      ],
      "stateMutability": "view",
      "type": "function",
      "constant": true
    },
    {
      "inputs": [],
      "name": "getMyWillTo",
      "outputs": [
        {
          "internalType": "address[]",
          "name": "",
          "type": "address[]"
        }
      ],
      "stateMutability": "view",
      "type": "function",
      "constant": true
    },
    {
      "inputs": [],
      "name": "getMyWillAmount",
      "outputs": [
        {
          "internalType": "uint256[]",
          "name": "",
          "type": "uint256[]"
        }
      ],
      "stateMutability": "view",
      "type": "function",
      "constant": true
    },
    {
      "inputs": [
        {
          "internalType": "string",
          "name": "personalNIN",
          "type": "string"
        },
        {
          "components": [
            {
              "internalType": "address",
              "name": "to",
              "type": "address"
            },
            {
              "internalType": "uint256",
              "name": "amount",
              "type": "uint256"
            }
          ],
          "internalType": "struct EtherWill.Clause[]",
          "name": "clauses",
          "type": "tuple[]"
        }
      ],
      "name": "createWill",
      "outputs": [],
      "stateMutability": "payable",
      "type": "function",
      "payable": true
    },
    {
      "inputs": [
        {
          "internalType": "string",
          "name": "personalNIN",
          "type": "string"
        },
        {
          "internalType": "address[]",
          "name": "addresses",
          "type": "address[]"
        },
        {
          "internalType": "uint256[]",
          "name": "amounts",
          "type": "uint256[]"
        }
      ],
      "name": "createWillUI",
      "outputs": [],
      "stateMutability": "payable",
      "type": "function",
      "payable": true
    },
    {
      "inputs": [
        {
          "internalType": "string",
          "name": "personalNIN",
          "type": "string"
        }
      ],
      "name": "executeWills",
      "outputs": [],
      "stateMutability": "payable",
      "type": "function",
      "payable": true
    }
  ],
  "bytecode": "0x608060405234801561001057600080fd5b50336000806101000a81548173ffffffffffffffffffffffffffffffffffffffff021916908373ffffffffffffffffffffffffffffffffffffffff160217905550612e51806100606000396000f3fe6080604052600436106100e15760003560e01c8063a14a02631161007f578063c7d75af311610059578063c7d75af3146102aa578063edaf5ec6146102e7578063f2c298be14610324578063ff1d98931461034d57610121565b8063a14a026314610247578063a2f47ff414610263578063af5a5d971461027f57610121565b80634ebf85d5116100bb5780634ebf85d5146101aa5780635f1edeec146101d55780636e9960c3146102005780637a7cd0811461022b57610121565b806304dc4e67146101265780632c590516146101425780634518f6b31461016d57610121565b36610121577f31f37e75fc861191c989b3f8011596a4c0dd2bd2b255a7072a7d94fdb895a7243334604051610117929190612921565b60405180910390a1005b600080fd5b610140600480360381019061013b919061222c565b610376565b005b34801561014e57600080fd5b50610157610828565b6040516101649190612884565b60405180910390f35b34801561017957600080fd5b50610194600480360381019061018f9190612197565b6109d9565b6040516101a191906127f5565b60405180910390f35b3480156101b657600080fd5b506101bf610a21565b6040516101cc91906127f5565b60405180910390f35b3480156101e157600080fd5b506101ea610a4b565b6040516101f79190612840565b60405180910390f35b34801561020c57600080fd5b50610215610c4a565b60405161022291906127f5565b60405180910390f35b61024560048036038101906102409190612197565b610c73565b005b610261600480360381019061025c91906122c3565b6112ea565b005b61027d600480360381019061027891906121d8565b611630565b005b34801561028b57600080fd5b50610294611a4e565b6040516102a19190612862565b60405180910390f35b3480156102b657600080fd5b506102d160048036038101906102cc9190612197565b611b4a565b6040516102de91906128a6565b60405180910390f35b3480156102f357600080fd5b5061030e6004803603810190610309919061216e565b611bc1565b60405161031b9190612862565b60405180910390f35b34801561033057600080fd5b5061034b60048036038101906103469190612197565b611cbf565b005b34801561035957600080fd5b50610374600480360381019061036f919061216e565b611dcc565b005b82600073ffffffffffffffffffffffffffffffffffffffff1660038260405161039f91906127de565b908152602001604051809103902060009054906101000a900473ffffffffffffffffffffffffffffffffffffffff1673ffffffffffffffffffffffffffffffffffffffff161415610425576040517f08c379a000000000000000000000000000000000000000000000000000000000815260040161041c906128e1565b60405180910390fd5b3373ffffffffffffffffffffffffffffffffffffffff1660038560405161044c91906127de565b908152602001604051809103902060009054906101000a900473ffffffffffffffffffffffffffffffffffffffff1673ffffffffffffffffffffffffffffffffffffffff16146104d1576040517f08c379a00000000000000000000000000000000000000000000000000000000081526004016104c89061299d565b60405180910390fd5b6000835167ffffffffffffffff811115610514577f4e487b7100000000000000000000000000000000000000000000000000000000600052604160045260246000fd5b60405190808252806020026020018201604052801561054d57816020015b61053a611e9e565b8152602001906001900390816105325790505b5090506000805b82518110156106ad5760405180604001604052808783815181106105a1577f4e487b7100000000000000000000000000000000000000000000000000000000600052603260045260246000fd5b602002602001015173ffffffffffffffffffffffffffffffffffffffff1681526020018683815181106105fd577f4e487b7100000000000000000000000000000000000000000000000000000000600052603260045260246000fd5b6020026020010151815250838281518110610641577f4e487b7100000000000000000000000000000000000000000000000000000000600052603260045260246000fd5b6020026020010181905250848181518110610685577f4e487b7100000000000000000000000000000000000000000000000000000000600052603260045260246000fd5b6020026020010151826106989190612ba1565b915080806106a590612d39565b915050610554565b50670de0b6b3a7640000816106c29190612bf7565b341015610704576040517f08c379a00000000000000000000000000000000000000000000000000000000081526004016106fb90612901565b60405180910390fd5b60005b825181101561081f57600260003373ffffffffffffffffffffffffffffffffffffffff1673ffffffffffffffffffffffffffffffffffffffff168152602001908152602001600020838281518110610788577f4e487b7100000000000000000000000000000000000000000000000000000000600052603260045260246000fd5b6020026020010151908060018154018082558091505060019003906000526020600020906002020160009091909190915060008201518160000160006101000a81548173ffffffffffffffffffffffffffffffffffffffff021916908373ffffffffffffffffffffffffffffffffffffffff160217905550602082015181600101555050808061081790612d39565b915050610707565b50505050505050565b60606000600260003373ffffffffffffffffffffffffffffffffffffffff1673ffffffffffffffffffffffffffffffffffffffff16815260200190815260200160002080549050905060008167ffffffffffffffff8111156108b3577f4e487b7100000000000000000000000000000000000000000000000000000000600052604160045260246000fd5b6040519080825280602002602001820160405280156108e15781602001602082028036833780820191505090505b50905060005b828110156109d057600260003373ffffffffffffffffffffffffffffffffffffffff1673ffffffffffffffffffffffffffffffffffffffff1681526020019081526020016000208181548110610966577f4e487b7100000000000000000000000000000000000000000000000000000000600052603260045260246000fd5b9060005260206000209060020201600101548282815181106109b1577f4e487b7100000000000000000000000000000000000000000000000000000000600052603260045260246000fd5b60200260200101818152505080806109c890612d39565b9150506108e7565b50809250505090565b60006003826040516109eb91906127de565b908152602001604051809103902060009054906101000a900473ffffffffffffffffffffffffffffffffffffffff169050919050565b6000600160009054906101000a900473ffffffffffffffffffffffffffffffffffffffff16905090565b60606000600260003373ffffffffffffffffffffffffffffffffffffffff1673ffffffffffffffffffffffffffffffffffffffff16815260200190815260200160002080549050905060008167ffffffffffffffff811115610ad6577f4e487b7100000000000000000000000000000000000000000000000000000000600052604160045260246000fd5b604051908082528060200260200182016040528015610b045781602001602082028036833780820191505090505b50905060005b82811015610c4157600260003373ffffffffffffffffffffffffffffffffffffffff1673ffffffffffffffffffffffffffffffffffffffff1681526020019081526020016000208181548110610b89577f4e487b7100000000000000000000000000000000000000000000000000000000600052603260045260246000fd5b906000526020600020906002020160000160009054906101000a900473ffffffffffffffffffffffffffffffffffffffff16828281518110610bf4577f4e487b7100000000000000000000000000000000000000000000000000000000600052603260045260246000fd5b602002602001019073ffffffffffffffffffffffffffffffffffffffff16908173ffffffffffffffffffffffffffffffffffffffff16815250508080610c3990612d39565b915050610b0a565b50809250505090565b60008060009054906101000a900473ffffffffffffffffffffffffffffffffffffffff16905090565b3373ffffffffffffffffffffffffffffffffffffffff16600160009054906101000a900473ffffffffffffffffffffffffffffffffffffffff1673ffffffffffffffffffffffffffffffffffffffff1614610d03576040517f08c379a0000000000000000000000000000000000000000000000000000000008152600401610cfa9061297d565b60405180910390fd5b80600073ffffffffffffffffffffffffffffffffffffffff16600382604051610d2c91906127de565b908152602001604051809103902060009054906101000a900473ffffffffffffffffffffffffffffffffffffffff1673ffffffffffffffffffffffffffffffffffffffff161415610db2576040517f08c379a0000000000000000000000000000000000000000000000000000000008152600401610da9906128e1565b60405180910390fd5b60005b60026000600385604051610dc991906127de565b908152602001604051809103902060009054906101000a900473ffffffffffffffffffffffffffffffffffffffff1673ffffffffffffffffffffffffffffffffffffffff1673ffffffffffffffffffffffffffffffffffffffff168152602001908152602001600020805490508110156111f257600060026000600386604051610e5391906127de565b908152602001604051809103902060009054906101000a900473ffffffffffffffffffffffffffffffffffffffff1673ffffffffffffffffffffffffffffffffffffffff1673ffffffffffffffffffffffffffffffffffffffff1681526020019081526020016000208281548110610ef4577f4e487b7100000000000000000000000000000000000000000000000000000000600052603260045260246000fd5b90600052602060002090600202016001015411156111135760026000600385604051610f2091906127de565b908152602001604051809103902060009054906101000a900473ffffffffffffffffffffffffffffffffffffffff1673ffffffffffffffffffffffffffffffffffffffff1673ffffffffffffffffffffffffffffffffffffffff1681526020019081526020016000208181548110610fc1577f4e487b7100000000000000000000000000000000000000000000000000000000600052603260045260246000fd5b906000526020600020906002020160000160009054906101000a900473ffffffffffffffffffffffffffffffffffffffff1673ffffffffffffffffffffffffffffffffffffffff166108fc670de0b6b3a76400006002600060038860405161102991906127de565b908152602001604051809103902060009054906101000a900473ffffffffffffffffffffffffffffffffffffffff1673ffffffffffffffffffffffffffffffffffffffff1673ffffffffffffffffffffffffffffffffffffffff16815260200190815260200160002084815481106110ca577f4e487b7100000000000000000000000000000000000000000000000000000000600052603260045260246000fd5b9060005260206000209060020201600101546110e69190612bf7565b9081150290604051600060405180830381858888f19350505050158015611111573d6000803e3d6000fd5b505b60006002600060038660405161112991906127de565b908152602001604051809103902060009054906101000a900473ffffffffffffffffffffffffffffffffffffffff1673ffffffffffffffffffffffffffffffffffffffff1673ffffffffffffffffffffffffffffffffffffffff16815260200190815260200160002082815481106111ca577f4e487b7100000000000000000000000000000000000000000000000000000000600052603260045260246000fd5b90600052602060002090600202016001018190555080806111ea90612d39565b915050610db5565b507f892cee498e1904ec99779475846af70506e9f32c64f55b3d5f4d4c54603f501960038360405161122491906127de565b908152602001604051809103902060009054906101000a900473ffffffffffffffffffffffffffffffffffffffff166002600060038660405161126791906127de565b908152602001604051809103902060009054906101000a900473ffffffffffffffffffffffffffffffffffffffff1673ffffffffffffffffffffffffffffffffffffffff1673ffffffffffffffffffffffffffffffffffffffff1681526020019081526020016000206040516112de929190612810565b60405180910390a15050565b81600073ffffffffffffffffffffffffffffffffffffffff1660038260405161131391906127de565b908152602001604051809103902060009054906101000a900473ffffffffffffffffffffffffffffffffffffffff1673ffffffffffffffffffffffffffffffffffffffff161415611399576040517f08c379a0000000000000000000000000000000000000000000000000000000008152600401611390906128e1565b60405180910390fd5b3373ffffffffffffffffffffffffffffffffffffffff166003846040516113c091906127de565b908152602001604051809103902060009054906101000a900473ffffffffffffffffffffffffffffffffffffffff1673ffffffffffffffffffffffffffffffffffffffff1614611445576040517f08c379a000000000000000000000000000000000000000000000000000000000815260040161143c9061299d565b60405180910390fd5b6000805b83518110156114b75783818151811061148b577f4e487b7100000000000000000000000000000000000000000000000000000000600052603260045260246000fd5b602002602001015160200151826114a29190612ba1565b915080806114af90612d39565b915050611449565b50670de0b6b3a7640000816114cc9190612bf7565b34101561150e576040517f08c379a000000000000000000000000000000000000000000000000000000000815260040161150590612901565b60405180910390fd5b60005b835181101561162957600260003373ffffffffffffffffffffffffffffffffffffffff1673ffffffffffffffffffffffffffffffffffffffff168152602001908152602001600020848281518110611592577f4e487b7100000000000000000000000000000000000000000000000000000000600052603260045260246000fd5b6020026020010151908060018154018082558091505060019003906000526020600020906002020160009091909190915060008201518160000160006101000a81548173ffffffffffffffffffffffffffffffffffffffff021916908373ffffffffffffffffffffffffffffffffffffffff160217905550602082015181600101555050808061162190612d39565b915050611511565b5050505050565b81600073ffffffffffffffffffffffffffffffffffffffff1660038260405161165991906127de565b908152602001604051809103902060009054906101000a900473ffffffffffffffffffffffffffffffffffffffff1673ffffffffffffffffffffffffffffffffffffffff1614156116df576040517f08c379a00000000000000000000000000000000000000000000000000000000081526004016116d6906128e1565b60405180910390fd5b3373ffffffffffffffffffffffffffffffffffffffff1660038460405161170691906127de565b908152602001604051809103902060009054906101000a900473ffffffffffffffffffffffffffffffffffffffff1673ffffffffffffffffffffffffffffffffffffffff161461178b576040517f08c379a00000000000000000000000000000000000000000000000000000000081526004016117829061299d565b60405180910390fd5b6000805b600260003373ffffffffffffffffffffffffffffffffffffffff1673ffffffffffffffffffffffffffffffffffffffff168152602001908152602001600020805490508110156119ed578373ffffffffffffffffffffffffffffffffffffffff16600260003373ffffffffffffffffffffffffffffffffffffffff1673ffffffffffffffffffffffffffffffffffffffff1681526020019081526020016000208281548110611867577f4e487b7100000000000000000000000000000000000000000000000000000000600052603260045260246000fd5b906000526020600020906002020160000160009054906101000a900473ffffffffffffffffffffffffffffffffffffffff1673ffffffffffffffffffffffffffffffffffffffff1614156119da57600260003373ffffffffffffffffffffffffffffffffffffffff1673ffffffffffffffffffffffffffffffffffffffff168152602001908152602001600020818154811061192c577f4e487b7100000000000000000000000000000000000000000000000000000000600052603260045260246000fd5b906000526020600020906002020160010154826119499190612ba1565b91506000600260003373ffffffffffffffffffffffffffffffffffffffff1673ffffffffffffffffffffffffffffffffffffffff16815260200190815260200160002082815481106119c4577f4e487b7100000000000000000000000000000000000000000000000000000000600052603260045260246000fd5b9060005260206000209060020201600101819055505b80806119e590612d39565b91505061178f565b503373ffffffffffffffffffffffffffffffffffffffff166108fc670de0b6b3a764000083611a1c9190612bf7565b9081150290604051600060405180830381858888f19350505050158015611a47573d6000803e3d6000fd5b5050505050565b6060600260003373ffffffffffffffffffffffffffffffffffffffff1673ffffffffffffffffffffffffffffffffffffffff168152602001908152602001600020805480602002602001604051908101604052809291908181526020016000905b82821015611b4157838290600052602060002090600202016040518060400160405290816000820160009054906101000a900473ffffffffffffffffffffffffffffffffffffffff1673ffffffffffffffffffffffffffffffffffffffff1673ffffffffffffffffffffffffffffffffffffffff16815260200160018201548152505081526020019060010190611aaf565b50505050905090565b60008073ffffffffffffffffffffffffffffffffffffffff16600383604051611b7391906127de565b908152602001604051809103902060009054906101000a900473ffffffffffffffffffffffffffffffffffffffff1673ffffffffffffffffffffffffffffffffffffffff1614159050919050565b6060600260008373ffffffffffffffffffffffffffffffffffffffff1673ffffffffffffffffffffffffffffffffffffffff168152602001908152602001600020805480602002602001604051908101604052809291908181526020016000905b82821015611cb457838290600052602060002090600202016040518060400160405290816000820160009054906101000a900473ffffffffffffffffffffffffffffffffffffffff1673ffffffffffffffffffffffffffffffffffffffff1673ffffffffffffffffffffffffffffffffffffffff16815260200160018201548152505081526020019060010190611c22565b505050509050919050565b600073ffffffffffffffffffffffffffffffffffffffff16600382604051611ce791906127de565b908152602001604051809103902060009054906101000a900473ffffffffffffffffffffffffffffffffffffffff1673ffffffffffffffffffffffffffffffffffffffff1614611d6c576040517f08c379a0000000000000000000000000000000000000000000000000000000008152600401611d63906128c1565b60405180910390fd5b33600382604051611d7d91906127de565b908152602001604051809103902060006101000a81548173ffffffffffffffffffffffffffffffffffffffff021916908373ffffffffffffffffffffffffffffffffffffffff16021790555050565b60008054906101000a900473ffffffffffffffffffffffffffffffffffffffff1673ffffffffffffffffffffffffffffffffffffffff163273ffffffffffffffffffffffffffffffffffffffff1614611e5a576040517f08c379a0000000000000000000000000000000000000000000000000000000008152600401611e519061295d565b60405180910390fd5b80600160006101000a81548173ffffffffffffffffffffffffffffffffffffffff021916908373ffffffffffffffffffffffffffffffffffffffff16021790555050565b6040518060400160405280600073ffffffffffffffffffffffffffffffffffffffff168152602001600081525090565b6000611ee1611edc846129ee565b6129bd565b90508083825260208201905082856020860282011115611f0057600080fd5b60005b85811015611f305781611f168882612050565b845260208401935060208301925050600181019050611f03565b5050509392505050565b6000611f4d611f4884612a1a565b6129bd565b90508083825260208201905082856040860282011115611f6c57600080fd5b60005b85811015611f9c5781611f82888261210d565b845260208401935060408301925050600181019050611f6f565b5050509392505050565b6000611fb9611fb484612a46565b6129bd565b90508083825260208201905082856020860282011115611fd857600080fd5b60005b858110156120085781611fee8882612159565b845260208401935060208301925050600181019050611fdb565b5050509392505050565b600061202561202084612a72565b6129bd565b90508281526020810184848401111561203d57600080fd5b612048848285612cc3565b509392505050565b60008135905061205f81612ded565b92915050565b600082601f83011261207657600080fd5b8135612086848260208601611ece565b91505092915050565b600082601f8301126120a057600080fd5b81356120b0848260208601611f3a565b91505092915050565b600082601f8301126120ca57600080fd5b81356120da848260208601611fa6565b91505092915050565b600082601f8301126120f457600080fd5b8135612104848260208601612012565b91505092915050565b60006040828403121561211f57600080fd5b61212960406129bd565b9050600061213984828501612050565b600083015250602061214d84828501612159565b60208301525092915050565b60008135905061216881612e04565b92915050565b60006020828403121561218057600080fd5b600061218e84828501612050565b91505092915050565b6000602082840312156121a957600080fd5b600082013567ffffffffffffffff8111156121c357600080fd5b6121cf848285016120e3565b91505092915050565b600080604083850312156121eb57600080fd5b600083013567ffffffffffffffff81111561220557600080fd5b612211858286016120e3565b925050602061222285828601612050565b9150509250929050565b60008060006060848603121561224157600080fd5b600084013567ffffffffffffffff81111561225b57600080fd5b612267868287016120e3565b935050602084013567ffffffffffffffff81111561228457600080fd5b61229086828701612065565b925050604084013567ffffffffffffffff8111156122ad57600080fd5b6122b9868287016120b9565b9150509250925092565b600080604083850312156122d657600080fd5b600083013567ffffffffffffffff8111156122f057600080fd5b6122fc858286016120e3565b925050602083013567ffffffffffffffff81111561231957600080fd5b6123258582860161208f565b9150509250929050565b600061233b838361238f565b60208301905092915050565b6000612353838361274a565b60408301905092915050565b600061236b8383612779565b60408301905092915050565b600061238383836127c0565b60208301905092915050565b61239881612c7b565b82525050565b6123a781612c7b565b82525050565b60006123b882612ae7565b6123c28185612b52565b93506123cd83612aa2565b8060005b838110156123fe5781516123e5888261232f565b97506123f083612b1e565b9250506001810190506123d1565b5085935050505092915050565b600061241682612af2565b6124208185612b63565b935061242b83612ab2565b8060005b8381101561245c5781516124438882612347565b975061244e83612b2b565b92505060018101905061242f565b5085935050505092915050565b600061247482612afd565b61247e8185612b63565b935061248983612ac2565b8060005b838110156124b957816124a0888261235f565b97506124ab83612b38565b92505060018101905061248d565b5085935050505092915050565b60006124d182612b08565b6124db8185612b74565b93506124e683612ad7565b8060005b838110156125175781516124fe8882612377565b975061250983612b45565b9250506001810190506124ea565b5085935050505092915050565b61252d81612c8d565b82525050565b600061253e82612b13565b6125488185612b96565b9350612558818560208601612cd2565b80840191505092915050565b6000612571601483612b85565b91507f416c6c72656164792072656769737465726564210000000000000000000000006000830152602082019050919050565b60006125b1600f83612b85565b91507f4e6f7420726567697374657265642100000000000000000000000000000000006000830152602082019050919050565b60006125f1601283612b85565b91507f4e6f7420656e6f756768206574686572732100000000000000000000000000006000830152602082019050919050565b6000612631600783612b85565b91507f72656365697665000000000000000000000000000000000000000000000000006000830152602082019050919050565b6000612671601483612b85565b91507f43616c6c6572206973206e6f742061646d696e210000000000000000000000006000830152602082019050919050565b60006126b1602383612b85565b91507f43616c6c6572206973206e6f7420636572746966696564204d6964646c65776160008301527f72652100000000000000000000000000000000000000000000000000000000006020830152604082019050919050565b6000612717600c83612b85565b91507f4e6f7420796f7572204e494e00000000000000000000000000000000000000006000830152602082019050919050565b604082016000820151612760600085018261238f565b50602082015161277360208501826127c0565b50505050565b60408201600080830154905061278e81612d05565b61279b600086018261238f565b50600183015490506127ac81612d1f565b6127b960208601826127c0565b5050505050565b6127c981612cb9565b82525050565b6127d881612cb9565b82525050565b60006127ea8284612533565b915081905092915050565b600060208201905061280a600083018461239e565b92915050565b6000604082019050612825600083018561239e565b81810360208301526128378184612469565b90509392505050565b6000602082019050818103600083015261285a81846123ad565b905092915050565b6000602082019050818103600083015261287c818461240b565b905092915050565b6000602082019050818103600083015261289e81846124c6565b905092915050565b60006020820190506128bb6000830184612524565b92915050565b600060208201905081810360008301526128da81612564565b9050919050565b600060208201905081810360008301526128fa816125a4565b9050919050565b6000602082019050818103600083015261291a816125e4565b9050919050565b6000606082019050818103600083015261293a81612624565b9050612949602083018561239e565b61295660408301846127cf565b9392505050565b6000602082019050818103600083015261297681612664565b9050919050565b60006020820190508181036000830152612996816126a4565b9050919050565b600060208201905081810360008301526129b68161270a565b9050919050565b6000604051905081810181811067ffffffffffffffff821117156129e4576129e3612db1565b5b8060405250919050565b600067ffffffffffffffff821115612a0957612a08612db1565b5b602082029050602081019050919050565b600067ffffffffffffffff821115612a3557612a34612db1565b5b602082029050602081019050919050565b600067ffffffffffffffff821115612a6157612a60612db1565b5b602082029050602081019050919050565b600067ffffffffffffffff821115612a8d57612a8c612db1565b5b601f19601f8301169050602081019050919050565b6000819050602082019050919050565b6000819050602082019050919050565b60008190508160005260206000209050919050565b6000819050602082019050919050565b600081519050919050565b600081519050919050565b600081549050919050565b600081519050919050565b600081519050919050565b6000602082019050919050565b6000602082019050919050565b6000600282019050919050565b6000602082019050919050565b600082825260208201905092915050565b600082825260208201905092915050565b600082825260208201905092915050565b600082825260208201905092915050565b600081905092915050565b6000612bac82612cb9565b9150612bb783612cb9565b9250827fffffffffffffffffffffffffffffffffffffffffffffffffffffffffffffffff03821115612bec57612beb612d82565b5b828201905092915050565b6000612c0282612cb9565b9150612c0d83612cb9565b9250817fffffffffffffffffffffffffffffffffffffffffffffffffffffffffffffffff0483118215151615612c4657612c45612d82565b5b828202905092915050565b600073ffffffffffffffffffffffffffffffffffffffff82169050919050565b6000819050919050565b6000612c8682612c99565b9050919050565b60008115159050919050565b600073ffffffffffffffffffffffffffffffffffffffff82169050919050565b6000819050919050565b82818337600083830152505050565b60005b83811015612cf0578082015181840152602081019050612cd5565b83811115612cff576000848401525b50505050565b6000612d18612d1383612de0565b612c51565b9050919050565b6000612d32612d2d83612de0565b612c71565b9050919050565b6000612d4482612cb9565b91507fffffffffffffffffffffffffffffffffffffffffffffffffffffffffffffffff821415612d7757612d76612d82565b5b600182019050919050565b7f4e487b7100000000000000000000000000000000000000000000000000000000600052601160045260246000fd5b7f4e487b7100000000000000000000000000000000000000000000000000000000600052604160045260246000fd5b60008160001c9050919050565b612df681612c7b565b8114612e0157600080fd5b50565b612e0d81612cb9565b8114612e1857600080fd5b5056fea26469706673582212206a6faecc6408adc8a44a76127a630bacb91e4e065f7e1a7075710fc9790191a464736f6c63430008000033",
  "immutableReferences": {},
  "source": "// SPDX-License-Identifier: GPL-3.0\r\n\r\npragma solidity >=0.8.0 <0.9.0;\r\n\r\ncontract EtherWill {\r\n\r\n    struct Clause {\r\n        address to;\r\n        uint amount; // in ether\r\n    }\r\n\r\n    address private admin;\r\n\r\n    address private deathCertificateAddr;\r\n\r\n    mapping(address => Clause[]) private wills;\r\n\r\n    mapping(string => address) private accounts;\r\n\r\n    event ExecutedWill(address testator, Clause[] clauses);\r\n\r\n    event Log(string func, address sender, uint value); //For logging money\r\n\r\n    modifier isAdmin() {\r\n        require(tx.origin == admin, \"Caller is not admin!\");\r\n        _;\r\n    }\r\n\r\n    modifier isDeathCertificateContract() {\r\n        require(deathCertificateAddr == msg.sender, \"Caller is not certified Middleware!\");\r\n        _;\r\n    }\r\n\r\n    modifier isRegistered(string memory personalNIN) {\r\n        require(accounts[personalNIN] != address(0), \"Not registered!\");\r\n        _;\r\n    }\r\n\r\n    constructor() {\r\n        admin = msg.sender;\r\n    }\r\n\r\n    receive() external payable {\r\n        emit Log(\"receive\", msg.sender, msg.value);\r\n    }\r\n\r\n    function getWills(address addr) public view returns(Clause[] memory) {\r\n        return wills[addr];\r\n    }\r\n\r\n    function getAccount(string memory NIN) public view returns(address) {\r\n        return accounts[NIN];\r\n    }\r\n\r\n    function getAdmin() public view returns(address) {\r\n        return admin;\r\n    }\r\n\r\n    function getDeathCertificateAddr() public view returns(address) {\r\n        return deathCertificateAddr;\r\n    }\r\n\r\n    // used for testing purposes\r\n    function amIReggistered(string memory personalNIN) public view returns(bool) {\r\n        return accounts[personalNIN] != address(0);\r\n    }\r\n\r\n    // Only the Dapp will call it\r\n    function register(string memory personalNIN) public {\r\n        require(accounts[personalNIN] == address(0), \"Allready registered!\");\r\n\r\n        accounts[personalNIN] = msg.sender;\r\n    }\r\n\r\n    function setDeathSertificateAddr(address addr) public isAdmin {\r\n        deathCertificateAddr = addr;\r\n    }\r\n\r\n    function deleteWillTo(string memory personalNIN, address to) public payable isRegistered(personalNIN) {\r\n        require(accounts[personalNIN] == msg.sender, \"Not your NIN\");\r\n\r\n        // How much we need to transfer back to the user\r\n        uint amountToReturn = 0;\r\n\r\n        for (uint i = 0; i < wills[msg.sender].length; i++) {\r\n            if (wills[msg.sender][i].to == to) {\r\n                amountToReturn += wills[msg.sender][i].amount;\r\n\r\n                // There is a problem if pop elements form array when they drop down to 1 so we just make amounts 0\r\n                wills[msg.sender][i].amount = 0;\r\n            }\r\n        }\r\n        // Not sure if we need to charge the user for the gas\r\n        payable(msg.sender).transfer(amountToReturn * (1 ether));\r\n    }\r\n\r\n    function getMyWill() public view returns(Clause[] memory) {\r\n        return wills[msg.sender];\r\n    }\r\n\r\n    // this is hack for ui\r\n    function getMyWillTo() public view returns(address[] memory) {\r\n        uint length = wills[msg.sender].length;\r\n        address[] memory arr = new address[](length);\r\n        for (uint256 index = 0; index < length; index++) {\r\n            arr[index] = wills[msg.sender][index].to;\r\n        }\r\n\r\n        return arr;\r\n    }\r\n\r\n    function getMyWillAmount() public view returns(uint[] memory){\r\n        uint length = wills[msg.sender].length;\r\n        uint[] memory arr = new uint[](length);\r\n        for (uint256 index = 0; index < length; index++) {\r\n            arr[index] = wills[msg.sender][index].amount;\r\n        }\r\n\r\n        return arr;\r\n    }\r\n\r\n    function createWill(string memory personalNIN, Clause[] memory clauses) public payable isRegistered(personalNIN) {\r\n        require(accounts[personalNIN] == msg.sender, \"Not your NIN\");\r\n\r\n        // Check if the user has enough ETH\r\n        uint willAmount = 0;\r\n        for (uint i = 0; i < clauses.length; i++) {\r\n            willAmount += clauses[i].amount;\r\n        }\r\n        require(msg.value >= willAmount * (1 ether), \"Not enough ethers!\");\r\n\r\n        // Lock the will ethers in the smart contract\r\n        // Add the will clauses\r\n        for (uint i = 0; i < clauses.length; i++) {\r\n            wills[msg.sender].push(clauses[i]);\r\n        }\r\n    }\r\n\r\n    // This is for ui only ... \r\n    function createWillUI(string memory personalNIN, address[] memory addresses, uint[] memory amounts) public payable isRegistered(personalNIN) {\r\n        require(accounts[personalNIN] == msg.sender, \"Not your NIN\");\r\n\r\n        Clause[] memory clauses = new Clause[](addresses.length);\r\n\r\n        // Check if the user has enough ETH\r\n        uint willAmount = 0;\r\n        for (uint i = 0; i < clauses.length; i++) {\r\n            clauses[i] = Clause({to: addresses[i], amount: amounts[i]});\r\n            willAmount += amounts[i];\r\n        }\r\n        require(msg.value >= willAmount * (1 ether), \"Not enough ethers!\");\r\n\r\n        // Lock the will ethers in the smart contract\r\n        // Add the will clauses\r\n        for (uint i = 0; i < clauses.length; i++) {\r\n            wills[msg.sender].push(clauses[i]);\r\n        }\r\n    }\r\n\r\n    // Executes the wills of the dead person if they have an account\r\n    // Triggered by DeathSertificate contract\r\n    function executeWills(string memory personalNIN) public payable isDeathCertificateContract isRegistered(personalNIN) {\r\n        // This can be optimized through grouping the wills by the receiver and executing them\r\n        for (uint i = 0; i < wills[accounts[personalNIN]].length; i++) {\r\n            if (wills[accounts[personalNIN]][i].amount > 0) {\r\n                payable(wills[accounts[personalNIN]][i].to).transfer(wills[accounts[personalNIN]][i].amount * (1 ether));\r\n            }\r\n\r\n            // Here we set it to zero because if we remove them - there is an VM error \r\n            wills[accounts[personalNIN]][i].amount = 0;       \r\n        }\r\n\r\n        emit ExecutedWill(accounts[personalNIN], wills[accounts[personalNIN]]);\r\n    }\r\n}\r\n",
  "sourcePath": "F:\\jorko\\FMI\\will-chain\\contracts\\EtherWill.sol",
  "compiler": {
    "name": "solc",
    "version": "0.8.0+commit.c7dfd78e.Emscripten.clang"
  },
  "schemaVersion": "3.4.7",
  "updatedAt": "2022-06-15T16:54:00.831Z",
  "networkType": "ethereum",
  "devdoc": {
    "kind": "dev",
    "methods": {},
    "version": 1
  },
  "userdoc": {
    "kind": "user",
    "methods": {},
    "version": 1
  }
}