{
  "contractName": "EtherWill",
  "abi": [
    {
      "inputs": [],
      "stateMutability": "nonpayable",
      "type": "constructor"
    },
    {
      "anonymous": false,
      "inputs": [
        {
          "indexed": false,
          "internalType": "address",
          "name": "testator",
          "type": "address"
        },
        {
          "components": [
            {
              "internalType": "address",
              "name": "to",
              "type": "address"
            },
            {
              "internalType": "uint256",
              "name": "amount",
              "type": "uint256"
            }
          ],
          "indexed": false,
          "internalType": "struct EtherWill.Clause[]",
          "name": "clauses",
          "type": "tuple[]"
        }
      ],
      "name": "ExecutedWill",
      "type": "event"
    },
    {
      "anonymous": false,
      "inputs": [
        {
          "indexed": false,
          "internalType": "string",
          "name": "func",
          "type": "string"
        },
        {
          "indexed": false,
          "internalType": "address",
          "name": "sender",
          "type": "address"
        },
        {
          "indexed": false,
          "internalType": "uint256",
          "name": "value",
          "type": "uint256"
        }
      ],
      "name": "Log",
      "type": "event"
    },
    {
      "stateMutability": "payable",
      "type": "receive",
      "payable": true
    },
    {
      "inputs": [
        {
          "internalType": "address",
          "name": "addr",
          "type": "address"
        }
      ],
      "name": "getWills",
      "outputs": [
        {
          "components": [
            {
              "internalType": "address",
              "name": "to",
              "type": "address"
            },
            {
              "internalType": "uint256",
              "name": "amount",
              "type": "uint256"
            }
          ],
          "internalType": "struct EtherWill.Clause[]",
          "name": "",
          "type": "tuple[]"
        }
      ],
      "stateMutability": "view",
      "type": "function",
      "constant": true
    },
    {
      "inputs": [
        {
          "internalType": "string",
          "name": "NIN",
          "type": "string"
        }
      ],
      "name": "getAccount",
      "outputs": [
        {
          "internalType": "address",
          "name": "",
          "type": "address"
        }
      ],
      "stateMutability": "view",
      "type": "function",
      "constant": true
    },
    {
      "inputs": [],
      "name": "getAdmin",
      "outputs": [
        {
          "internalType": "address",
          "name": "",
          "type": "address"
        }
      ],
      "stateMutability": "view",
      "type": "function",
      "constant": true
    },
    {
      "inputs": [],
      "name": "getDeathCertificateAddr",
      "outputs": [
        {
          "internalType": "address",
          "name": "",
          "type": "address"
        }
      ],
      "stateMutability": "view",
      "type": "function",
      "constant": true
    },
    {
      "inputs": [
        {
          "internalType": "string",
          "name": "personalNIN",
          "type": "string"
        }
      ],
      "name": "amIReggistered",
      "outputs": [
        {
          "internalType": "bool",
          "name": "",
          "type": "bool"
        }
      ],
      "stateMutability": "view",
      "type": "function",
      "constant": true
    },
    {
      "inputs": [
        {
          "internalType": "string",
          "name": "personalNIN",
          "type": "string"
        }
      ],
      "name": "register",
      "outputs": [],
      "stateMutability": "nonpayable",
      "type": "function"
    },
    {
      "inputs": [
        {
          "internalType": "address",
          "name": "addr",
          "type": "address"
        }
      ],
      "name": "setDeathSertificateAddr",
      "outputs": [],
      "stateMutability": "nonpayable",
      "type": "function"
    },
    {
      "inputs": [
        {
          "internalType": "string",
          "name": "personalNIN",
          "type": "string"
        },
        {
          "internalType": "address",
          "name": "to",
          "type": "address"
        }
      ],
      "name": "deleteWillTo",
      "outputs": [],
      "stateMutability": "payable",
      "type": "function",
      "payable": true
    },
    {
      "inputs": [],
      "name": "getMyWill",
      "outputs": [
        {
          "components": [
            {
              "internalType": "address",
              "name": "to",
              "type": "address"
            },
            {
              "internalType": "uint256",
              "name": "amount",
              "type": "uint256"
            }
          ],
          "internalType": "struct EtherWill.Clause[]",
          "name": "",
          "type": "tuple[]"
        }
      ],
      "stateMutability": "view",
      "type": "function",
      "constant": true
    },
    {
      "inputs": [],
      "name": "getMyWillTo",
      "outputs": [
        {
          "internalType": "address[]",
          "name": "",
          "type": "address[]"
        }
      ],
      "stateMutability": "view",
      "type": "function",
      "constant": true
    },
    {
      "inputs": [],
      "name": "getMyWillAmount",
      "outputs": [
        {
          "internalType": "uint256[]",
          "name": "",
          "type": "uint256[]"
        }
      ],
      "stateMutability": "view",
      "type": "function",
      "constant": true
    },
    {
      "inputs": [
        {
          "internalType": "string",
          "name": "personalNIN",
          "type": "string"
        },
        {
          "components": [
            {
              "internalType": "address",
              "name": "to",
              "type": "address"
            },
            {
              "internalType": "uint256",
              "name": "amount",
              "type": "uint256"
            }
          ],
          "internalType": "struct EtherWill.Clause[]",
          "name": "clauses",
          "type": "tuple[]"
        }
      ],
      "name": "createWill",
      "outputs": [],
      "stateMutability": "payable",
      "type": "function",
      "payable": true
    },
    {
      "inputs": [
        {
          "internalType": "string",
          "name": "personalNIN",
          "type": "string"
        },
        {
          "internalType": "address[]",
          "name": "addresses",
          "type": "address[]"
        },
        {
          "internalType": "uint256[]",
          "name": "amounts",
          "type": "uint256[]"
        }
      ],
      "name": "createWillUI",
      "outputs": [],
      "stateMutability": "payable",
      "type": "function",
      "payable": true
    },
    {
      "inputs": [
        {
          "internalType": "string",
          "name": "personalNIN",
          "type": "string"
        }
      ],
      "name": "executeWills",
      "outputs": [],
      "stateMutability": "payable",
      "type": "function",
      "payable": true
    }
  ],
  "bytecode": "0x608060405234801561001057600080fd5b50336000806101000a81548173ffffffffffffffffffffffffffffffffffffffff021916908373ffffffffffffffffffffffffffffffffffffffff160217905550612ce7806100606000396000f3fe6080604052600436106100e15760003560e01c8063a14a02631161007f578063c7d75af311610059578063c7d75af3146102aa578063edaf5ec6146102e7578063f2c298be14610324578063ff1d98931461034d57610121565b8063a14a026314610247578063a2f47ff414610263578063af5a5d971461027f57610121565b80634ebf85d5116100bb5780634ebf85d5146101aa5780635f1edeec146101d55780636e9960c3146102005780637a7cd0811461022b57610121565b806304dc4e67146101265780632c590516146101425780634518f6b31461016d57610121565b36610121577f31f37e75fc861191c989b3f8011596a4c0dd2bd2b255a7072a7d94fdb895a72433346040516101179291906127f1565b60405180910390a1005b600080fd5b610140600480360381019061013b91906121b8565b610376565b005b34801561014e57600080fd5b50610157610828565b6040516101649190612754565b60405180910390f35b34801561017957600080fd5b50610194600480360381019061018f9190612123565b6109d9565b6040516101a191906126c5565b60405180910390f35b3480156101b657600080fd5b506101bf610a21565b6040516101cc91906126c5565b60405180910390f35b3480156101e157600080fd5b506101ea610a4b565b6040516101f79190612710565b60405180910390f35b34801561020c57600080fd5b50610215610c4a565b60405161022291906126c5565b60405180910390f35b61024560048036038101906102409190612123565b610c73565b005b610261600480360381019061025c919061224f565b611067565b005b61027d60048036038101906102789190612164565b6113ad565b005b34801561028b57600080fd5b506102946119da565b6040516102a19190612732565b60405180910390f35b3480156102b657600080fd5b506102d160048036038101906102cc9190612123565b611ad6565b6040516102de9190612776565b60405180910390f35b3480156102f357600080fd5b5061030e600480360381019061030991906120fa565b611b4d565b60405161031b9190612732565b60405180910390f35b34801561033057600080fd5b5061034b60048036038101906103469190612123565b611c4b565b005b34801561035957600080fd5b50610374600480360381019061036f91906120fa565b611d58565b005b82600073ffffffffffffffffffffffffffffffffffffffff1660038260405161039f91906126ae565b908152602001604051809103902060009054906101000a900473ffffffffffffffffffffffffffffffffffffffff1673ffffffffffffffffffffffffffffffffffffffff161415610425576040517f08c379a000000000000000000000000000000000000000000000000000000000815260040161041c906127b1565b60405180910390fd5b3373ffffffffffffffffffffffffffffffffffffffff1660038560405161044c91906126ae565b908152602001604051809103902060009054906101000a900473ffffffffffffffffffffffffffffffffffffffff1673ffffffffffffffffffffffffffffffffffffffff16146104d1576040517f08c379a00000000000000000000000000000000000000000000000000000000081526004016104c89061286d565b60405180910390fd5b6000835167ffffffffffffffff811115610514577f4e487b7100000000000000000000000000000000000000000000000000000000600052604160045260246000fd5b60405190808252806020026020018201604052801561054d57816020015b61053a611e2a565b8152602001906001900390816105325790505b5090506000805b82518110156106ad5760405180604001604052808783815181106105a1577f4e487b7100000000000000000000000000000000000000000000000000000000600052603260045260246000fd5b602002602001015173ffffffffffffffffffffffffffffffffffffffff1681526020018683815181106105fd577f4e487b7100000000000000000000000000000000000000000000000000000000600052603260045260246000fd5b6020026020010151815250838281518110610641577f4e487b7100000000000000000000000000000000000000000000000000000000600052603260045260246000fd5b6020026020010181905250848181518110610685577f4e487b7100000000000000000000000000000000000000000000000000000000600052603260045260246000fd5b6020026020010151826106989190612a44565b915080806106a590612bdc565b915050610554565b50670de0b6b3a7640000816106c29190612a9a565b341015610704576040517f08c379a00000000000000000000000000000000000000000000000000000000081526004016106fb906127d1565b60405180910390fd5b60005b825181101561081f57600260003373ffffffffffffffffffffffffffffffffffffffff1673ffffffffffffffffffffffffffffffffffffffff168152602001908152602001600020838281518110610788577f4e487b7100000000000000000000000000000000000000000000000000000000600052603260045260246000fd5b6020026020010151908060018154018082558091505060019003906000526020600020906002020160009091909190915060008201518160000160006101000a81548173ffffffffffffffffffffffffffffffffffffffff021916908373ffffffffffffffffffffffffffffffffffffffff160217905550602082015181600101555050808061081790612bdc565b915050610707565b50505050505050565b60606000600260003373ffffffffffffffffffffffffffffffffffffffff1673ffffffffffffffffffffffffffffffffffffffff16815260200190815260200160002080549050905060008167ffffffffffffffff8111156108b3577f4e487b7100000000000000000000000000000000000000000000000000000000600052604160045260246000fd5b6040519080825280602002602001820160405280156108e15781602001602082028036833780820191505090505b50905060005b828110156109d057600260003373ffffffffffffffffffffffffffffffffffffffff1673ffffffffffffffffffffffffffffffffffffffff1681526020019081526020016000208181548110610966577f4e487b7100000000000000000000000000000000000000000000000000000000600052603260045260246000fd5b9060005260206000209060020201600101548282815181106109b1577f4e487b7100000000000000000000000000000000000000000000000000000000600052603260045260246000fd5b60200260200101818152505080806109c890612bdc565b9150506108e7565b50809250505090565b60006003826040516109eb91906126ae565b908152602001604051809103902060009054906101000a900473ffffffffffffffffffffffffffffffffffffffff169050919050565b6000600160009054906101000a900473ffffffffffffffffffffffffffffffffffffffff16905090565b60606000600260003373ffffffffffffffffffffffffffffffffffffffff1673ffffffffffffffffffffffffffffffffffffffff16815260200190815260200160002080549050905060008167ffffffffffffffff811115610ad6577f4e487b7100000000000000000000000000000000000000000000000000000000600052604160045260246000fd5b604051908082528060200260200182016040528015610b045781602001602082028036833780820191505090505b50905060005b82811015610c4157600260003373ffffffffffffffffffffffffffffffffffffffff1673ffffffffffffffffffffffffffffffffffffffff1681526020019081526020016000208181548110610b89577f4e487b7100000000000000000000000000000000000000000000000000000000600052603260045260246000fd5b906000526020600020906002020160000160009054906101000a900473ffffffffffffffffffffffffffffffffffffffff16828281518110610bf4577f4e487b7100000000000000000000000000000000000000000000000000000000600052603260045260246000fd5b602002602001019073ffffffffffffffffffffffffffffffffffffffff16908173ffffffffffffffffffffffffffffffffffffffff16815250508080610c3990612bdc565b915050610b0a565b50809250505090565b60008060009054906101000a900473ffffffffffffffffffffffffffffffffffffffff16905090565b3373ffffffffffffffffffffffffffffffffffffffff16600160009054906101000a900473ffffffffffffffffffffffffffffffffffffffff1673ffffffffffffffffffffffffffffffffffffffff1614610d03576040517f08c379a0000000000000000000000000000000000000000000000000000000008152600401610cfa9061284d565b60405180910390fd5b80600073ffffffffffffffffffffffffffffffffffffffff16600382604051610d2c91906126ae565b908152602001604051809103902060009054906101000a900473ffffffffffffffffffffffffffffffffffffffff1673ffffffffffffffffffffffffffffffffffffffff161415610db2576040517f08c379a0000000000000000000000000000000000000000000000000000000008152600401610da9906127b1565b60405180910390fd5b600060026000600385604051610dc891906126ae565b908152602001604051809103902060009054906101000a900473ffffffffffffffffffffffffffffffffffffffff1673ffffffffffffffffffffffffffffffffffffffff1673ffffffffffffffffffffffffffffffffffffffff168152602001908152602001600020805480602002602001604051908101604052809291908181526020016000905b82821015610ee357838290600052602060002090600202016040518060400160405290816000820160009054906101000a900473ffffffffffffffffffffffffffffffffffffffff1673ffffffffffffffffffffffffffffffffffffffff1673ffffffffffffffffffffffffffffffffffffffff16815260200160018201548152505081526020019060010190610e51565b50505050905060005b8151811015610fea57818181518110610f2e577f4e487b7100000000000000000000000000000000000000000000000000000000600052603260045260246000fd5b60200260200101516000015173ffffffffffffffffffffffffffffffffffffffff166108fc670de0b6b3a7640000848481518110610f95577f4e487b7100000000000000000000000000000000000000000000000000000000600052603260045260246000fd5b602002602001015160200151610fab9190612a9a565b9081150290604051600060405180830381858888f19350505050158015610fd6573d6000803e3d6000fd5b508080610fe290612bdc565b915050610eec565b507f892cee498e1904ec99779475846af70506e9f32c64f55b3d5f4d4c54603f501960038460405161101c91906126ae565b908152602001604051809103902060009054906101000a900473ffffffffffffffffffffffffffffffffffffffff168260405161105a9291906126e0565b60405180910390a1505050565b81600073ffffffffffffffffffffffffffffffffffffffff1660038260405161109091906126ae565b908152602001604051809103902060009054906101000a900473ffffffffffffffffffffffffffffffffffffffff1673ffffffffffffffffffffffffffffffffffffffff161415611116576040517f08c379a000000000000000000000000000000000000000000000000000000000815260040161110d906127b1565b60405180910390fd5b3373ffffffffffffffffffffffffffffffffffffffff1660038460405161113d91906126ae565b908152602001604051809103902060009054906101000a900473ffffffffffffffffffffffffffffffffffffffff1673ffffffffffffffffffffffffffffffffffffffff16146111c2576040517f08c379a00000000000000000000000000000000000000000000000000000000081526004016111b99061286d565b60405180910390fd5b6000805b835181101561123457838181518110611208577f4e487b7100000000000000000000000000000000000000000000000000000000600052603260045260246000fd5b6020026020010151602001518261121f9190612a44565b9150808061122c90612bdc565b9150506111c6565b50670de0b6b3a7640000816112499190612a9a565b34101561128b576040517f08c379a0000000000000000000000000000000000000000000000000000000008152600401611282906127d1565b60405180910390fd5b60005b83518110156113a657600260003373ffffffffffffffffffffffffffffffffffffffff1673ffffffffffffffffffffffffffffffffffffffff16815260200190815260200160002084828151811061130f577f4e487b7100000000000000000000000000000000000000000000000000000000600052603260045260246000fd5b6020026020010151908060018154018082558091505060019003906000526020600020906002020160009091909190915060008201518160000160006101000a81548173ffffffffffffffffffffffffffffffffffffffff021916908373ffffffffffffffffffffffffffffffffffffffff160217905550602082015181600101555050808061139e90612bdc565b91505061128e565b5050505050565b81600073ffffffffffffffffffffffffffffffffffffffff166003826040516113d691906126ae565b908152602001604051809103902060009054906101000a900473ffffffffffffffffffffffffffffffffffffffff1673ffffffffffffffffffffffffffffffffffffffff16141561145c576040517f08c379a0000000000000000000000000000000000000000000000000000000008152600401611453906127b1565b60405180910390fd5b3373ffffffffffffffffffffffffffffffffffffffff1660038460405161148391906126ae565b908152602001604051809103902060009054906101000a900473ffffffffffffffffffffffffffffffffffffffff1673ffffffffffffffffffffffffffffffffffffffff1614611508576040517f08c379a00000000000000000000000000000000000000000000000000000000081526004016114ff9061286d565b60405180910390fd5b6000805b600260003373ffffffffffffffffffffffffffffffffffffffff1673ffffffffffffffffffffffffffffffffffffffff16815260200190815260200160002080549050811015611979578373ffffffffffffffffffffffffffffffffffffffff16600260003373ffffffffffffffffffffffffffffffffffffffff1673ffffffffffffffffffffffffffffffffffffffff16815260200190815260200160002082815481106115e4577f4e487b7100000000000000000000000000000000000000000000000000000000600052603260045260246000fd5b906000526020600020906002020160000160009054906101000a900473ffffffffffffffffffffffffffffffffffffffff1673ffffffffffffffffffffffffffffffffffffffff16141561196657600260003373ffffffffffffffffffffffffffffffffffffffff1673ffffffffffffffffffffffffffffffffffffffff16815260200190815260200160002081815481106116a9577f4e487b7100000000000000000000000000000000000000000000000000000000600052603260045260246000fd5b906000526020600020906002020160010154826116c69190612a44565b91506000600260003373ffffffffffffffffffffffffffffffffffffffff1673ffffffffffffffffffffffffffffffffffffffff168152602001908152602001600020805490509050600260003373ffffffffffffffffffffffffffffffffffffffff1673ffffffffffffffffffffffffffffffffffffffff16815260200190815260200160002060018261175b9190612af4565b81548110611792577f4e487b7100000000000000000000000000000000000000000000000000000000600052603260045260246000fd5b9060005260206000209060020201600260003373ffffffffffffffffffffffffffffffffffffffff1673ffffffffffffffffffffffffffffffffffffffff1681526020019081526020016000208381548110611817577f4e487b7100000000000000000000000000000000000000000000000000000000600052603260045260246000fd5b90600052602060002090600202016000820160009054906101000a900473ffffffffffffffffffffffffffffffffffffffff168160000160006101000a81548173ffffffffffffffffffffffffffffffffffffffff021916908373ffffffffffffffffffffffffffffffffffffffff16021790555060018201548160010155905050600260003373ffffffffffffffffffffffffffffffffffffffff1673ffffffffffffffffffffffffffffffffffffffff16815260200190815260200160002080548061190e577f4e487b7100000000000000000000000000000000000000000000000000000000600052603160045260246000fd5b6001900381819060005260206000209060020201600080820160006101000a81549073ffffffffffffffffffffffffffffffffffffffff0219169055600182016000905550509055818061196190612bb2565b925050505b808061197190612bdc565b91505061150c565b503373ffffffffffffffffffffffffffffffffffffffff166108fc670de0b6b3a7640000836119a89190612a9a565b9081150290604051600060405180830381858888f193505050501580156119d3573d6000803e3d6000fd5b5050505050565b6060600260003373ffffffffffffffffffffffffffffffffffffffff1673ffffffffffffffffffffffffffffffffffffffff168152602001908152602001600020805480602002602001604051908101604052809291908181526020016000905b82821015611acd57838290600052602060002090600202016040518060400160405290816000820160009054906101000a900473ffffffffffffffffffffffffffffffffffffffff1673ffffffffffffffffffffffffffffffffffffffff1673ffffffffffffffffffffffffffffffffffffffff16815260200160018201548152505081526020019060010190611a3b565b50505050905090565b60008073ffffffffffffffffffffffffffffffffffffffff16600383604051611aff91906126ae565b908152602001604051809103902060009054906101000a900473ffffffffffffffffffffffffffffffffffffffff1673ffffffffffffffffffffffffffffffffffffffff1614159050919050565b6060600260008373ffffffffffffffffffffffffffffffffffffffff1673ffffffffffffffffffffffffffffffffffffffff168152602001908152602001600020805480602002602001604051908101604052809291908181526020016000905b82821015611c4057838290600052602060002090600202016040518060400160405290816000820160009054906101000a900473ffffffffffffffffffffffffffffffffffffffff1673ffffffffffffffffffffffffffffffffffffffff1673ffffffffffffffffffffffffffffffffffffffff16815260200160018201548152505081526020019060010190611bae565b505050509050919050565b600073ffffffffffffffffffffffffffffffffffffffff16600382604051611c7391906126ae565b908152602001604051809103902060009054906101000a900473ffffffffffffffffffffffffffffffffffffffff1673ffffffffffffffffffffffffffffffffffffffff1614611cf8576040517f08c379a0000000000000000000000000000000000000000000000000000000008152600401611cef90612791565b60405180910390fd5b33600382604051611d0991906126ae565b908152602001604051809103902060006101000a81548173ffffffffffffffffffffffffffffffffffffffff021916908373ffffffffffffffffffffffffffffffffffffffff16021790555050565b60008054906101000a900473ffffffffffffffffffffffffffffffffffffffff1673ffffffffffffffffffffffffffffffffffffffff163273ffffffffffffffffffffffffffffffffffffffff1614611de6576040517f08c379a0000000000000000000000000000000000000000000000000000000008152600401611ddd9061282d565b60405180910390fd5b80600160006101000a81548173ffffffffffffffffffffffffffffffffffffffff021916908373ffffffffffffffffffffffffffffffffffffffff16021790555050565b6040518060400160405280600073ffffffffffffffffffffffffffffffffffffffff168152602001600081525090565b6000611e6d611e68846128be565b61288d565b90508083825260208201905082856020860282011115611e8c57600080fd5b60005b85811015611ebc5781611ea28882611fdc565b845260208401935060208301925050600181019050611e8f565b5050509392505050565b6000611ed9611ed4846128ea565b61288d565b90508083825260208201905082856040860282011115611ef857600080fd5b60005b85811015611f285781611f0e8882612099565b845260208401935060408301925050600181019050611efb565b5050509392505050565b6000611f45611f4084612916565b61288d565b90508083825260208201905082856020860282011115611f6457600080fd5b60005b85811015611f945781611f7a88826120e5565b845260208401935060208301925050600181019050611f67565b5050509392505050565b6000611fb1611fac84612942565b61288d565b905082815260208101848484011115611fc957600080fd5b611fd4848285612b70565b509392505050565b600081359050611feb81612c83565b92915050565b600082601f83011261200257600080fd5b8135612012848260208601611e5a565b91505092915050565b600082601f83011261202c57600080fd5b813561203c848260208601611ec6565b91505092915050565b600082601f83011261205657600080fd5b8135612066848260208601611f32565b91505092915050565b600082601f83011261208057600080fd5b8135612090848260208601611f9e565b91505092915050565b6000604082840312156120ab57600080fd5b6120b5604061288d565b905060006120c584828501611fdc565b60008301525060206120d9848285016120e5565b60208301525092915050565b6000813590506120f481612c9a565b92915050565b60006020828403121561210c57600080fd5b600061211a84828501611fdc565b91505092915050565b60006020828403121561213557600080fd5b600082013567ffffffffffffffff81111561214f57600080fd5b61215b8482850161206f565b91505092915050565b6000806040838503121561217757600080fd5b600083013567ffffffffffffffff81111561219157600080fd5b61219d8582860161206f565b92505060206121ae85828601611fdc565b9150509250929050565b6000806000606084860312156121cd57600080fd5b600084013567ffffffffffffffff8111156121e757600080fd5b6121f38682870161206f565b935050602084013567ffffffffffffffff81111561221057600080fd5b61221c86828701611ff1565b925050604084013567ffffffffffffffff81111561223957600080fd5b61224586828701612045565b9150509250925092565b6000806040838503121561226257600080fd5b600083013567ffffffffffffffff81111561227c57600080fd5b6122888582860161206f565b925050602083013567ffffffffffffffff8111156122a557600080fd5b6122b18582860161201b565b9150509250929050565b60006122c78383612303565b60208301905092915050565b60006122df8383612661565b60408301905092915050565b60006122f78383612690565b60208301905092915050565b61230c81612b28565b82525050565b61231b81612b28565b82525050565b600061232c826129a2565b61233681856129f5565b935061234183612972565b8060005b8381101561237257815161235988826122bb565b9750612364836129ce565b925050600181019050612345565b5085935050505092915050565b600061238a826129ad565b6123948185612a06565b935061239f83612982565b8060005b838110156123d05781516123b788826122d3565b97506123c2836129db565b9250506001810190506123a3565b5085935050505092915050565b60006123e8826129b8565b6123f28185612a17565b93506123fd83612992565b8060005b8381101561242e57815161241588826122eb565b9750612420836129e8565b925050600181019050612401565b5085935050505092915050565b61244481612b3a565b82525050565b6000612455826129c3565b61245f8185612a39565b935061246f818560208601612b7f565b80840191505092915050565b6000612488601483612a28565b91507f416c6c72656164792072656769737465726564210000000000000000000000006000830152602082019050919050565b60006124c8600f83612a28565b91507f4e6f7420726567697374657265642100000000000000000000000000000000006000830152602082019050919050565b6000612508601283612a28565b91507f4e6f7420656e6f756768206574686572732100000000000000000000000000006000830152602082019050919050565b6000612548600783612a28565b91507f72656365697665000000000000000000000000000000000000000000000000006000830152602082019050919050565b6000612588601483612a28565b91507f43616c6c6572206973206e6f742061646d696e210000000000000000000000006000830152602082019050919050565b60006125c8602383612a28565b91507f43616c6c6572206973206e6f7420636572746966696564204d6964646c65776160008301527f72652100000000000000000000000000000000000000000000000000000000006020830152604082019050919050565b600061262e600c83612a28565b91507f4e6f7420796f7572204e494e00000000000000000000000000000000000000006000830152602082019050919050565b6040820160008201516126776000850182612303565b50602082015161268a6020850182612690565b50505050565b61269981612b66565b82525050565b6126a881612b66565b82525050565b60006126ba828461244a565b915081905092915050565b60006020820190506126da6000830184612312565b92915050565b60006040820190506126f56000830185612312565b8181036020830152612707818461237f565b90509392505050565b6000602082019050818103600083015261272a8184612321565b905092915050565b6000602082019050818103600083015261274c818461237f565b905092915050565b6000602082019050818103600083015261276e81846123dd565b905092915050565b600060208201905061278b600083018461243b565b92915050565b600060208201905081810360008301526127aa8161247b565b9050919050565b600060208201905081810360008301526127ca816124bb565b9050919050565b600060208201905081810360008301526127ea816124fb565b9050919050565b6000606082019050818103600083015261280a8161253b565b90506128196020830185612312565b612826604083018461269f565b9392505050565b600060208201905081810360008301526128468161257b565b9050919050565b60006020820190508181036000830152612866816125bb565b9050919050565b6000602082019050818103600083015261288681612621565b9050919050565b6000604051905081810181811067ffffffffffffffff821117156128b4576128b3612c54565b5b8060405250919050565b600067ffffffffffffffff8211156128d9576128d8612c54565b5b602082029050602081019050919050565b600067ffffffffffffffff82111561290557612904612c54565b5b602082029050602081019050919050565b600067ffffffffffffffff82111561293157612930612c54565b5b602082029050602081019050919050565b600067ffffffffffffffff82111561295d5761295c612c54565b5b601f19601f8301169050602081019050919050565b6000819050602082019050919050565b6000819050602082019050919050565b6000819050602082019050919050565b600081519050919050565b600081519050919050565b600081519050919050565b600081519050919050565b6000602082019050919050565b6000602082019050919050565b6000602082019050919050565b600082825260208201905092915050565b600082825260208201905092915050565b600082825260208201905092915050565b600082825260208201905092915050565b600081905092915050565b6000612a4f82612b66565b9150612a5a83612b66565b9250827fffffffffffffffffffffffffffffffffffffffffffffffffffffffffffffffff03821115612a8f57612a8e612c25565b5b828201905092915050565b6000612aa582612b66565b9150612ab083612b66565b9250817fffffffffffffffffffffffffffffffffffffffffffffffffffffffffffffffff0483118215151615612ae957612ae8612c25565b5b828202905092915050565b6000612aff82612b66565b9150612b0a83612b66565b925082821015612b1d57612b1c612c25565b5b828203905092915050565b6000612b3382612b46565b9050919050565b60008115159050919050565b600073ffffffffffffffffffffffffffffffffffffffff82169050919050565b6000819050919050565b82818337600083830152505050565b60005b83811015612b9d578082015181840152602081019050612b82565b83811115612bac576000848401525b50505050565b6000612bbd82612b66565b91506000821415612bd157612bd0612c25565b5b600182039050919050565b6000612be782612b66565b91507fffffffffffffffffffffffffffffffffffffffffffffffffffffffffffffffff821415612c1a57612c19612c25565b5b600182019050919050565b7f4e487b7100000000000000000000000000000000000000000000000000000000600052601160045260246000fd5b7f4e487b7100000000000000000000000000000000000000000000000000000000600052604160045260246000fd5b612c8c81612b28565b8114612c9757600080fd5b50565b612ca381612b66565b8114612cae57600080fd5b5056fea26469706673582212202b301802a3ba07b225a97f5563c39bec02803ee379097857cf46f2bd1b392f0964736f6c63430008000033",
  "immutableReferences": {},
  "source": "// SPDX-License-Identifier: GPL-3.0\r\n\r\npragma solidity >=0.8.0 <0.9.0;\r\n\r\ncontract EtherWill {\r\n\r\n    struct Clause {\r\n        address to;\r\n        uint amount; // in ether\r\n    }\r\n\r\n    address private admin;\r\n\r\n    address private deathCertificateAddr;\r\n\r\n    mapping(address => Clause[]) private wills;\r\n\r\n    mapping(string => address) private accounts;\r\n\r\n    event ExecutedWill(address testator, Clause[] clauses);\r\n\r\n    event Log(string func, address sender, uint value); //For logging money\r\n\r\n    modifier isAdmin() {\r\n        require(tx.origin == admin, \"Caller is not admin!\");\r\n        _;\r\n    }\r\n\r\n    modifier isDeathCertificateContract() {\r\n        require(deathCertificateAddr == msg.sender, \"Caller is not certified Middleware!\");\r\n        _;\r\n    }\r\n\r\n    modifier isRegistered(string memory personalNIN) {\r\n        require(accounts[personalNIN] != address(0), \"Not registered!\");\r\n        _;\r\n    }\r\n\r\n    constructor() {\r\n        admin = msg.sender;\r\n    }\r\n\r\n    receive() external payable {\r\n        emit Log(\"receive\", msg.sender, msg.value);\r\n    }\r\n\r\n    function getWills(address addr) public view returns(Clause[] memory) {\r\n        return wills[addr];\r\n    }\r\n\r\n    function getAccount(string memory NIN) public view returns(address) {\r\n        return accounts[NIN];\r\n    }\r\n\r\n    function getAdmin() public view returns(address) {\r\n        return admin;\r\n    }\r\n\r\n    function getDeathCertificateAddr() public view returns(address) {\r\n        return deathCertificateAddr;\r\n    }\r\n\r\n    // used for testing purposes\r\n    function amIReggistered(string memory personalNIN) public view returns(bool) {\r\n        return accounts[personalNIN] != address(0);\r\n    }\r\n\r\n    // Only the Dapp will call it\r\n    function register(string memory personalNIN) public {\r\n        require(accounts[personalNIN] == address(0), \"Allready registered!\");\r\n\r\n        accounts[personalNIN] = msg.sender;\r\n    }\r\n\r\n    function setDeathSertificateAddr(address addr) public isAdmin {\r\n        deathCertificateAddr = addr;\r\n    }\r\n\r\n    function deleteWillTo(string memory personalNIN, address to) public payable isRegistered(personalNIN) {\r\n        require(accounts[personalNIN] == msg.sender, \"Not your NIN\");\r\n\r\n        // How much we need to transfer back to the user\r\n        uint amountToReturn = 0;\r\n\r\n        for (uint i = 0; i < wills[msg.sender].length; i++) {\r\n            if (wills[msg.sender][i].to == to) {\r\n                amountToReturn += wills[msg.sender][i].amount;\r\n\r\n                uint length = wills[msg.sender].length;\r\n                // Delete the clause\r\n                wills[msg.sender][i] = wills[msg.sender][length - 1];\r\n                wills[msg.sender].pop();\r\n                i--; // To check if the last element also satisfy the removal condition\r\n            }\r\n        }\r\n        // Not sure if we need to charge the user for the gas\r\n        payable(msg.sender).transfer(amountToReturn * (1 ether));\r\n    }\r\n\r\n    function getMyWill() public view returns(Clause[] memory) {\r\n        return wills[msg.sender];\r\n    }\r\n\r\n    // this is hack for ui\r\n    function getMyWillTo() public view returns(address[] memory) {\r\n        uint length = wills[msg.sender].length;\r\n        address[] memory arr = new address[](length);\r\n        for (uint256 index = 0; index < length; index++) {\r\n            arr[index] = wills[msg.sender][index].to;\r\n        }\r\n\r\n        return arr;\r\n    }\r\n\r\n    function getMyWillAmount() public view returns(uint[] memory){\r\n        uint length = wills[msg.sender].length;\r\n        uint[] memory arr = new uint[](length);\r\n        for (uint256 index = 0; index < length; index++) {\r\n            arr[index] = wills[msg.sender][index].amount;\r\n        }\r\n\r\n        return arr;\r\n    }\r\n\r\n    function createWill(string memory personalNIN, Clause[] memory clauses) public payable isRegistered(personalNIN) {\r\n        require(accounts[personalNIN] == msg.sender, \"Not your NIN\");\r\n\r\n        // Check if the user has enough ETH\r\n        uint willAmount = 0;\r\n        for (uint i = 0; i < clauses.length; i++) {\r\n            willAmount += clauses[i].amount;\r\n        }\r\n        require(msg.value >= willAmount * (1 ether), \"Not enough ethers!\");\r\n\r\n        // Lock the will ethers in the smart contract\r\n        // Add the will clauses\r\n        for (uint i = 0; i < clauses.length; i++) {\r\n            wills[msg.sender].push(clauses[i]);\r\n        }\r\n    }\r\n\r\n    // This is for ui only ... \r\n    function createWillUI(string memory personalNIN, address[] memory addresses, uint[] memory amounts) public payable isRegistered(personalNIN) {\r\n        require(accounts[personalNIN] == msg.sender, \"Not your NIN\");\r\n\r\n        Clause[] memory clauses = new Clause[](addresses.length);\r\n\r\n        // Check if the user has enough ETH\r\n        uint willAmount = 0;\r\n        for (uint i = 0; i < clauses.length; i++) {\r\n            clauses[i] = Clause({to: addresses[i], amount: amounts[i]});\r\n            willAmount += amounts[i];\r\n        }\r\n        require(msg.value >= willAmount * (1 ether), \"Not enough ethers!\");\r\n\r\n        // Lock the will ethers in the smart contract\r\n        // Add the will clauses\r\n        for (uint i = 0; i < clauses.length; i++) {\r\n            wills[msg.sender].push(clauses[i]);\r\n        }\r\n    }\r\n\r\n    // Executes the wills of the dead person if they have an account\r\n    // Triggered by DeathSertificate contract\r\n    function executeWills(string memory personalNIN) public payable isDeathCertificateContract isRegistered(personalNIN) {\r\n        Clause[] memory testatorWills = wills[accounts[personalNIN]];\r\n\r\n        // This can be optimized through grouping the wills by the receiver and executing them\r\n        for (uint i = 0; i < testatorWills.length; i++) {\r\n            payable(testatorWills[i].to).transfer(testatorWills[i].amount * (1 ether));\r\n        }\r\n\r\n        emit ExecutedWill(accounts[personalNIN], testatorWills);\r\n    }\r\n}\r\n",
  "sourcePath": "F:\\jorko\\FMI\\will-chain\\contracts\\EtherWill.sol",
  "compiler": {
    "name": "solc",
    "version": "0.8.0+commit.c7dfd78e.Emscripten.clang"
  },
  "schemaVersion": "3.4.7",
  "updatedAt": "2022-06-12T19:17:05.335Z",
  "networkType": "ethereum",
  "devdoc": {
    "kind": "dev",
    "methods": {},
    "version": 1
  },
  "userdoc": {
    "kind": "user",
    "methods": {},
    "version": 1
  }
}